{
  "contractName": "chainlinkFetch",
  "abi": [
    {
      "inputs": [],
      "stateMutability": "nonpayable",
      "type": "constructor"
    },
    {
      "anonymous": false,
      "inputs": [
        {
          "indexed": true,
          "internalType": "bytes32",
          "name": "id",
          "type": "bytes32"
        }
      ],
      "name": "ChainlinkCancelled",
      "type": "event"
    },
    {
      "anonymous": false,
      "inputs": [
        {
          "indexed": true,
          "internalType": "bytes32",
          "name": "id",
          "type": "bytes32"
        }
      ],
      "name": "ChainlinkFulfilled",
      "type": "event"
    },
    {
      "anonymous": false,
      "inputs": [
        {
          "indexed": true,
          "internalType": "bytes32",
          "name": "id",
          "type": "bytes32"
        }
      ],
      "name": "ChainlinkRequested",
      "type": "event"
    },
    {
      "inputs": [],
      "name": "ethereumPrice",
      "outputs": [
        {
          "internalType": "uint256",
          "name": "",
          "type": "uint256"
        }
      ],
      "stateMutability": "view",
      "type": "function"
    },
    {
      "inputs": [],
      "name": "requestEthereumPrice",
      "outputs": [
        {
          "internalType": "bytes32",
          "name": "requestId",
          "type": "bytes32"
        }
      ],
      "stateMutability": "nonpayable",
      "type": "function"
    },
    {
      "inputs": [
        {
          "internalType": "bytes32",
          "name": "_requestId",
          "type": "bytes32"
        },
        {
          "internalType": "uint256",
          "name": "_price",
          "type": "uint256"
        }
      ],
      "name": "fulfill",
      "outputs": [],
      "stateMutability": "nonpayable",
      "type": "function"
    }
  ],
  "bytecode": "0x6080604052600160045534801561001557600080fd5b506100246100b460201b60201c565b732f90a6d021db21e1b2a077c5a37b3c7e75d15b7e600760006101000a81548173ffffffffffffffffffffffffffffffffffffffff021916908373ffffffffffffffffffffffffffffffffffffffff1602179055507f323966613961613133626631343638373838623763633461353030613435623860088190555067016345785d8a000060098190555061019d565b61015773c89bd4e1632d3a43cb03aaad5262cbe4038bc57173ffffffffffffffffffffffffffffffffffffffff166338cc48316040518163ffffffff1660e01b815260040160206040518083038186803b15801561011157600080fd5b505afa158015610125573d6000803e3d6000fd5b505050506040513d602081101561013b57600080fd5b810190808051906020019092919050505061015960201b60201c565b565b80600260006101000a81548173ffffffffffffffffffffffffffffffffffffffff021916908373ffffffffffffffffffffffffffffffffffffffff16021790555050565b610e37806101ac6000396000f3fe608060405234801561001057600080fd5b50600436106100415760003560e01c80634357855e1461004657806351aa01991461007e578063d7f29c631461009c575b600080fd5b61007c6004803603604081101561005c57600080fd5b8101908080359060200190929190803590602001909291905050506100ba565b005b6100866101e1565b6040518082815260200191505060405180910390f35b6100a46101e7565b6040518082815260200191505060405180910390f35b816005600082815260200190815260200160002060009054906101000a900473ffffffffffffffffffffffffffffffffffffffff1673ffffffffffffffffffffffffffffffffffffffff163373ffffffffffffffffffffffffffffffffffffffff1614610172576040517f08c379a0000000000000000000000000000000000000000000000000000000008152600401808060200182810382526028815260200180610dda6028913960400191505060405180910390fd5b6005600082815260200190815260200160002060006101000a81549073ffffffffffffffffffffffffffffffffffffffff0219169055807f7cc135e0cebb02c3480ae5d74d377283180a2601f8f644edf7987b009316c63a60405160405180910390a281600681905550505050565b60065481565b60006101f1610cb9565b61020560085430634357855e60e01b610352565b90506102696040518060400160405280600381526020017f6765740000000000000000000000000000000000000000000000000000000000815250604051806080016040528060558152602001610d6460559139836103839092919063ffffffff16565b6102cb6040518060400160405280600481526020017f7061746800000000000000000000000000000000000000000000000000000000815250604051806060016040528060218152602001610db960219139836103839092919063ffffffff16565b61031d6040518060400160405280600581526020017f74696d6573000000000000000000000000000000000000000000000000000000815250670de0b6b3a7640000836103b69092919063ffffffff16565b61034c600760009054906101000a900473ffffffffffffffffffffffffffffffffffffffff16826009546103e9565b91505090565b61035a610cb9565b610362610cb9565b61037985858584610672909392919063ffffffff16565b9150509392505050565b61039a82846080015161072290919063ffffffff16565b6103b181846080015161072290919063ffffffff16565b505050565b6103cd82846080015161072290919063ffffffff16565b6103e481846080015161074790919063ffffffff16565b505050565b600030600454604051602001808373ffffffffffffffffffffffffffffffffffffffff1660601b815260140182815260200192505050604051602081830303815290604052805190602001209050600454836060018181525050836005600083815260200190815260200160002060006101000a81548173ffffffffffffffffffffffffffffffffffffffff021916908373ffffffffffffffffffffffffffffffffffffffff160217905550807fb5e6e01e79f91267dc17b4e6314d5d4d03593d2ceee0fbb452b750bd70ea5af960405160405180910390a2600260009054906101000a900473ffffffffffffffffffffffffffffffffffffffff1673ffffffffffffffffffffffffffffffffffffffff16634000aea0858461050b87610793565b6040518463ffffffff1660e01b8152600401808473ffffffffffffffffffffffffffffffffffffffff16815260200183815260200180602001828103825283818151815260200191508051906020019080838360005b8381101561057c578082015181840152602081019050610561565b50505050905090810190601f1680156105a95780820380516001836020036101000a031916815260200191505b50945050505050602060405180830381600087803b1580156105ca57600080fd5b505af11580156105de573d6000803e3d6000fd5b505050506040513d60208110156105f457600080fd5b810190808051906020019092919050505061065a576040517f08c379a0000000000000000000000000000000000000000000000000000000008152600401808060200182810382526023815260200180610d416023913960400191505060405180910390fd5b60016004600082825401925050819055509392505050565b61067a610cb9565b61068a8560800151610100610914565b508385600001818152505082856020019073ffffffffffffffffffffffffffffffffffffffff16908173ffffffffffffffffffffffffffffffffffffffff16815250508185604001907bffffffffffffffffffffffffffffffffffffffffffffffffffffffff191690817bffffffffffffffffffffffffffffffffffffffffffffffffffffffff191681525050849050949350505050565b61072f8260038351610968565b6107428183610aad90919063ffffffff16565b505050565b600081126107605761075b82600083610968565b61078f565b61078e826001837fffffffffffffffffffffffffffffffffffffffffffffffffffffffffffffffff03610968565b5b5050565b6060634042994660e01b60008084600001518560200151866040015187606001516001896080015160000151604051602401808973ffffffffffffffffffffffffffffffffffffffff1681526020018881526020018781526020018673ffffffffffffffffffffffffffffffffffffffff168152602001857bffffffffffffffffffffffffffffffffffffffffffffffffffffffff1916815260200184815260200183815260200180602001828103825283818151815260200191508051906020019080838360005b8381101561087757808201518184015260208101905061085c565b50505050905090810190601f1680156108a45780820380516001836020036101000a031916815260200191505b509950505050505050505050604051602081830303815290604052907bffffffffffffffffffffffffffffffffffffffffffffffffffffffff19166020820180517bffffffffffffffffffffffffffffffffffffffffffffffffffffffff83818316178352505050509050919050565b61091c610d26565b60006020838161092857fe5b0614610941576020828161093857fe5b06602003820191505b81836020018181525050604051808452600081528281016020016040525082905092915050565b601781116109955761098f8160058460ff16901b60ff161784610acf90919063ffffffff16565b50610aa8565b60ff81116109d7576109ba601860058460ff16901b1784610acf90919063ffffffff16565b506109d181600185610aef9092919063ffffffff16565b50610aa7565b61ffff8111610a1a576109fd601960058460ff16901b1784610acf90919063ffffffff16565b50610a1481600285610aef9092919063ffffffff16565b50610aa6565b63ffffffff8111610a5f57610a42601a60058460ff16901b1784610acf90919063ffffffff16565b50610a5981600485610aef9092919063ffffffff16565b50610aa5565b67ffffffffffffffff8111610aa457610a8b601b60058460ff16901b1784610acf90919063ffffffff16565b50610aa281600885610aef9092919063ffffffff16565b505b5b5b5b5b505050565b610ab5610d26565b610ac783846000015151848551610b11565b905092915050565b610ad7610d26565b610ae78384600001515184610bca565b905092915050565b610af7610d26565b610b08848560000151518585610c18565b90509392505050565b610b19610d26565b8251821115610b2757600080fd5b84602001518285011115610b5257610b51856002610b4b8860200151888701610c79565b02610c95565b5b600080865180518760208301019350808887011115610b715787860182525b60208701925050505b60208410610b9d5780518252602082019150602081019050602084039350610b7a565b60006001856020036101000a03905080198251168184511681811785525050879350505050949350505050565b610bd2610d26565b83602001518310610bef57610bee846002866020015102610c95565b5b8351805160208583010184815381861415610c0b576001820183525b5050508390509392505050565b610c20610d26565b84602001518483011115610c3e57610c3d85600286850102610c95565b5b60006001836101000a0390508551838682010185831982511617815281518588011115610c6b5784870182525b505085915050949350505050565b600081831115610c8b57829050610c8f565b8190505b92915050565b606082600001519050610ca88383610914565b50610cb38382610aad565b50505050565b6040518060a0016040528060008019168152602001600073ffffffffffffffffffffffffffffffffffffffff16815260200160007bffffffffffffffffffffffffffffffffffffffffffffffffffffffff1916815260200160008152602001610d20610d26565b81525090565b60405180604001604052806060815260200160008152509056fe756e61626c6520746f207472616e73666572416e6443616c6c20746f206f7261636c6568747470733a2f2f6170692e6f70656e7365612e696f2f6170692f76312f61737365742f3078663562306133656662386538653463323031653261393335663131306561616633666665636238642f39383831392f6c6173745f73616c652e7061796d656e745f746f6b656e2e7573645f7072696365536f75726365206d75737420626520746865206f7261636c65206f66207468652072657175657374a2646970667358221220e60f4c086420565f154131a542bff430f11043df3e783a62e6ea6e5d931f7d8c64736f6c634300060c0033",
  "immutableReferences": {},
  "source": "// SPDX-License-Identifier: MIT\npragma solidity ^0.6.0;\n\nimport \"@chainlink/contracts/src/v0.6/ChainlinkClient.sol\";\n\ncontract chainlinkFetch is ChainlinkClient {\n  uint256 public ethereumPrice;\n\n  address private oracle;\n  bytes32 private jobId;\n  uint256 private fee;\n\n  /**\n   * Network: Kovan\n   * Oracle: Chainlink - 0x2f90A6D021db21e1B2A077c5a37B3C7E75D15b7e\n   * Job ID: Chainlink - 29fa9aa13bf1468788b7cc4a500a45b8\n   * Link: 0xa36085F69e2889c224210F603D836748e7dC0088\n   * Fee: 0.1 LINK\n   */\n  constructor() public {\n    setPublicChainlinkToken();\n    oracle = 0x2f90A6D021db21e1B2A077c5a37B3C7E75D15b7e;\n    jobId = \"29fa9aa13bf1468788b7cc4a500a45b8\";\n    fee = 0.1 * 10**18; // 0.1 LINK\n  }\n\n  /**\n   * Create a Chainlink request to retrieve API response, find the target price\n   * data, then multiply by 100 (to remove decimal places from price).\n   */\n  function requestEthereumPrice() public returns (bytes32 requestId) {\n    Chainlink.Request memory request = buildChainlinkRequest(\n      jobId,\n      address(this),\n      this.fulfill.selector\n    );\n\n    // Set the URL to perform the GET request on\n    request.add(\n      \"get\",\n      \"https://api.opensea.io/api/v1/asset/0xf5b0a3efb8e8e4c201e2a935f110eaaf3ffecb8d/98819/\"\n    );\n\n    // Set the path to find the desired data in the API response, where the response format is:\n    request.add(\"path\", \"last_sale.payment_token.usd_price\");\n\n    // Multiply the result by 100 to remove decimals\n    request.addInt(\"times\", 1000000000000000000);\n\n    // Sends the request\n    return sendChainlinkRequestTo(oracle, request, fee);\n  }\n\n  /**\n   * Receive the response in the form of uint256\n   */\n\n  function fulfill(bytes32 _requestId, uint256 _price)\n    public\n    recordChainlinkFulfillment(_requestId)\n  {\n    ethereumPrice = _price;\n  }\n}\n",
  "sourcePath": "/Users/shredder/git/renft-contracts/contracts/chainlinkFetch.sol",
  "compiler": {
    "name": "solc",
    "version": "0.6.12+commit.27d51765.Emscripten.clang"
  },
  "schemaVersion": "3.2.5",
  "updatedAt": "2020-09-26T14:06:13.721Z",
  "devdoc": {
    "kind": "dev",
    "methods": {},
    "version": 1
  },
  "userdoc": {
    "kind": "user",
    "methods": {
      "constructor": "Network: Kovan Oracle: Chainlink - 0x2f90A6D021db21e1B2A077c5a37B3C7E75D15b7e Job ID: Chainlink - 29fa9aa13bf1468788b7cc4a500a45b8 Link: 0xa36085F69e2889c224210F603D836748e7dC0088 Fee: 0.1 LINK",
      "fulfill(bytes32,uint256)": {
        "notice": "Receive the response in the form of uint256"
      },
      "requestEthereumPrice()": {
        "notice": "Create a Chainlink request to retrieve API response, find the target price data, then multiply by 100 (to remove decimal places from price)."
      }
    },
    "version": 1
  }
}