{
  "contractName": "Helper",
  "abi": [
    {
      "inputs": [],
      "name": "getLendingPool",
      "outputs": [
        {
          "internalType": "address",
          "name": "lendingpool",
          "type": "address"
        }
      ],
      "stateMutability": "pure",
      "type": "function"
    },
    {
      "inputs": [],
      "name": "getADAI",
      "outputs": [
        {
          "internalType": "address",
          "name": "adai",
          "type": "address"
        }
      ],
      "stateMutability": "pure",
      "type": "function"
    }
  ],
  "bytecode": "0x608060405234801561001057600080fd5b50610109806100206000396000f3fe6080604052348015600f57600080fd5b506004361060325760003560e01c80630261bf8b146037578063987acb85146069575b600080fd5b603d609b565b604051808273ffffffffffffffffffffffffffffffffffffffff16815260200191505060405180910390f35b606f60b7565b604051808273ffffffffffffffffffffffffffffffffffffffff16815260200191505060405180910390f35b600073580d4fdc4bf8f9b5ae2fb9225d584fed4ad5375c905090565b60007358ad4cb396411b691a9aab6f74545b2c5217fe6a90509056fea26469706673582212202a5f667f457be0f99167b2ae5e5ab13993d9d057c15846ea87d1186007e391e564736f6c634300060c0033",
  "immutableReferences": {},
  "source": "// SPDX-License-Identifier: MIT\npragma solidity ^0.6.0;\n\ncontract Helper {\n  /**\n   * @dev get Lending Pool kovan address\n   */\n  function getLendingPool() public pure returns (address lendingpool) {\n    lendingpool = 0x580D4Fdc4BF8f9b5ae2fb9225D584fED4AD5375c;\n  }\n\n  /**\n   * @dev get adai kovan address\n   */\n  function getADAI() public pure returns (address adai) {\n    adai = 0x58AD4cB396411B691A9AAb6F74545b2C5217FE6a;\n  }\n}\n",
  "sourcePath": "/Users/shredder/git/renft-contracts/contracts/utils/Helper.sol",
  "compiler": {
    "name": "solc",
    "version": "0.6.12+commit.27d51765.Emscripten.clang"
  },
  "schemaVersion": "3.2.5",
  "updatedAt": "2020-09-16T15:51:20.463Z",
  "devdoc": {
    "kind": "dev",
    "methods": {
      "getADAI()": {
        "details": "get adai kovan address"
      },
      "getLendingPool()": {
        "details": "get Lending Pool kovan address"
      }
    },
    "version": 1
  },
  "userdoc": {
    "kind": "user",
    "methods": {},
    "version": 1
  }
}