{
  "contractName": "InterestCalculatorProxy",
  "abi": [
    {
      "anonymous": false,
      "inputs": [
        {
          "indexed": true,
          "internalType": "address",
          "name": "thisAddress",
          "type": "address"
        }
      ],
      "name": "Initialized",
      "type": "event"
    },
    {
      "anonymous": false,
      "inputs": [
        {
          "indexed": true,
          "internalType": "address",
          "name": "previousOwner",
          "type": "address"
        },
        {
          "indexed": true,
          "internalType": "address",
          "name": "newOwner",
          "type": "address"
        }
      ],
      "name": "OwnershipTransferred",
      "type": "event"
    },
    {
      "inputs": [],
      "name": "owner",
      "outputs": [
        {
          "internalType": "address",
          "name": "",
          "type": "address"
        }
      ],
      "stateMutability": "view",
      "type": "function"
    },
    {
      "inputs": [],
      "name": "renounceOwnership",
      "outputs": [],
      "stateMutability": "nonpayable",
      "type": "function"
    },
    {
      "inputs": [],
      "name": "rentft",
      "outputs": [
        {
          "internalType": "address",
          "name": "",
          "type": "address"
        }
      ],
      "stateMutability": "view",
      "type": "function"
    },
    {
      "inputs": [
        {
          "internalType": "address",
          "name": "newOwner",
          "type": "address"
        }
      ],
      "name": "transferOwnership",
      "outputs": [],
      "stateMutability": "nonpayable",
      "type": "function"
    },
    {
      "inputs": [
        {
          "internalType": "address",
          "name": "_owner",
          "type": "address"
        }
      ],
      "name": "initialize",
      "outputs": [],
      "stateMutability": "nonpayable",
      "type": "function"
    },
    {
      "inputs": [
        {
          "internalType": "address",
          "name": "_reserve",
          "type": "address"
        },
        {
          "internalType": "address",
          "name": "_lendingPool",
          "type": "address"
        },
        {
          "internalType": "address",
          "name": "_lendingPoolCore",
          "type": "address"
        },
        {
          "internalType": "address",
          "name": "_rentft",
          "type": "address"
        }
      ],
      "name": "deposit",
      "outputs": [],
      "stateMutability": "nonpayable",
      "type": "function"
    },
    {
      "inputs": [
        {
          "internalType": "address",
          "name": "aDaiAddress",
          "type": "address"
        },
        {
          "internalType": "address",
          "name": "daiAddress",
          "type": "address"
        }
      ],
      "name": "withdraw",
      "outputs": [
        {
          "internalType": "uint256",
          "name": "",
          "type": "uint256"
        }
      ],
      "stateMutability": "nonpayable",
      "type": "function"
    }
  ],
  "bytecode": "0x608060405234801561001057600080fd5b50611478806100206000396000f3fe608060405234801561001057600080fd5b506004361061007d5760003560e01c8063d1eb96e21161005b578063d1eb96e214610104578063f2fde38b146101a8578063f30d67d9146101ec578063f940e385146102205761007d565b8063715018a6146100825780638da5cb5b1461008c578063c4d66de8146100c0575b600080fd5b61008a610298565b005b610094610423565b604051808273ffffffffffffffffffffffffffffffffffffffff16815260200191505060405180910390f35b610102600480360360208110156100d657600080fd5b81019080803573ffffffffffffffffffffffffffffffffffffffff16906020019092919050505061044d565b005b6101a66004803603608081101561011a57600080fd5b81019080803573ffffffffffffffffffffffffffffffffffffffff169060200190929190803573ffffffffffffffffffffffffffffffffffffffff169060200190929190803573ffffffffffffffffffffffffffffffffffffffff169060200190929190803573ffffffffffffffffffffffffffffffffffffffff1690602001909291905050506105a0565b005b6101ea600480360360208110156101be57600080fd5b81019080803573ffffffffffffffffffffffffffffffffffffffff1690602001909291905050506107cd565b005b6101f46109dd565b604051808273ffffffffffffffffffffffffffffffffffffffff16815260200191505060405180910390f35b6102826004803603604081101561023657600080fd5b81019080803573ffffffffffffffffffffffffffffffffffffffff169060200190929190803573ffffffffffffffffffffffffffffffffffffffff169060200190929190505050610a03565b6040518082815260200191505060405180910390f35b6102a0610c30565b73ffffffffffffffffffffffffffffffffffffffff16606560009054906101000a900473ffffffffffffffffffffffffffffffffffffffff1673ffffffffffffffffffffffffffffffffffffffff1614610362576040517f08c379a00000000000000000000000000000000000000000000000000000000081526004018080602001828103825260208152602001807f4f776e61626c653a2063616c6c6572206973206e6f7420746865206f776e657281525060200191505060405180910390fd5b600073ffffffffffffffffffffffffffffffffffffffff16606560009054906101000a900473ffffffffffffffffffffffffffffffffffffffff1673ffffffffffffffffffffffffffffffffffffffff167f8be0079c531659141344cd1fd0a4f28419497f9722a3daafe3b4186f6b6457e060405160405180910390a36000606560006101000a81548173ffffffffffffffffffffffffffffffffffffffff021916908373ffffffffffffffffffffffffffffffffffffffff160217905550565b6000606560009054906101000a900473ffffffffffffffffffffffffffffffffffffffff16905090565b600060019054906101000a900460ff168061046c575061046b610c38565b5b80610482575060008054906101000a900460ff16155b6104d7576040517f08c379a000000000000000000000000000000000000000000000000000000000815260040180806020018281038252602e8152602001806113eb602e913960400191505060405180910390fd5b60008060019054906101000a900460ff161590508015610527576001600060016101000a81548160ff02191690831515021790555060016000806101000a81548160ff0219169083151502179055505b61052f610c4f565b610538826107cd565b3073ffffffffffffffffffffffffffffffffffffffff167f908408e307fc569b417f6cbec5d5a06f44a0a505ac0479b47d421a4b2fd6a1e660405160405180910390a2801561059c5760008060016101000a81548160ff0219169083151502179055505b5050565b80609760006101000a81548173ffffffffffffffffffffffffffffffffffffffff021916908373ffffffffffffffffffffffffffffffffffffffff16021790555060008473ffffffffffffffffffffffffffffffffffffffff166370a08231306040518263ffffffff1660e01b8152600401808273ffffffffffffffffffffffffffffffffffffffff16815260200191505060206040518083038186803b15801561064a57600080fd5b505afa15801561065e573d6000803e3d6000fd5b505050506040513d602081101561067457600080fd5b810190808051906020019092919050505090508473ffffffffffffffffffffffffffffffffffffffff1663095ea7b384836040518363ffffffff1660e01b8152600401808373ffffffffffffffffffffffffffffffffffffffff16815260200182815260200192505050602060405180830381600087803b1580156106f857600080fd5b505af115801561070c573d6000803e3d6000fd5b505050506040513d602081101561072257600080fd5b8101908080519060200190929190505050508373ffffffffffffffffffffffffffffffffffffffff1663d2d0e066868360006040518463ffffffff1660e01b8152600401808473ffffffffffffffffffffffffffffffffffffffff1681526020018381526020018281526020019350505050600060405180830381600087803b1580156107ae57600080fd5b505af11580156107c2573d6000803e3d6000fd5b505050505050505050565b6107d5610c30565b73ffffffffffffffffffffffffffffffffffffffff16606560009054906101000a900473ffffffffffffffffffffffffffffffffffffffff1673ffffffffffffffffffffffffffffffffffffffff1614610897576040517f08c379a00000000000000000000000000000000000000000000000000000000081526004018080602001828103825260208152602001807f4f776e61626c653a2063616c6c6572206973206e6f7420746865206f776e657281525060200191505060405180910390fd5b600073ffffffffffffffffffffffffffffffffffffffff168173ffffffffffffffffffffffffffffffffffffffff16141561091d576040517f08c379a00000000000000000000000000000000000000000000000000000000081526004018080602001828103825260268152602001806113c56026913960400191505060405180910390fd5b8073ffffffffffffffffffffffffffffffffffffffff16606560009054906101000a900473ffffffffffffffffffffffffffffffffffffffff1673ffffffffffffffffffffffffffffffffffffffff167f8be0079c531659141344cd1fd0a4f28419497f9722a3daafe3b4186f6b6457e060405160405180910390a380606560006101000a81548173ffffffffffffffffffffffffffffffffffffffff021916908373ffffffffffffffffffffffffffffffffffffffff16021790555050565b609760009054906101000a900473ffffffffffffffffffffffffffffffffffffffff1681565b6000609760009054906101000a900473ffffffffffffffffffffffffffffffffffffffff1673ffffffffffffffffffffffffffffffffffffffff163373ffffffffffffffffffffffffffffffffffffffff1614610ac8576040517f08c379a000000000000000000000000000000000000000000000000000000000815260040180806020018281038252600a8152602001807f4e6f742052656e7466740000000000000000000000000000000000000000000081525060200191505060405180910390fd5b60008373ffffffffffffffffffffffffffffffffffffffff166370a08231306040518263ffffffff1660e01b8152600401808273ffffffffffffffffffffffffffffffffffffffff16815260200191505060206040518083038186803b158015610b3157600080fd5b505afa158015610b45573d6000803e3d6000fd5b505050506040513d6020811015610b5b57600080fd5b810190808051906020019092919050505090508373ffffffffffffffffffffffffffffffffffffffff1663db006a75826040518263ffffffff1660e01b815260040180828152602001915050600060405180830381600087803b158015610bc157600080fd5b505af1158015610bd5573d6000803e3d6000fd5b50505050610c26609760009054906101000a900473ffffffffffffffffffffffffffffffffffffffff16828573ffffffffffffffffffffffffffffffffffffffff16610d5d9092919063ffffffff16565b8091505092915050565b600033905090565b6000803090506000813b9050600081149250505090565b600060019054906101000a900460ff1680610c6e5750610c6d610c38565b5b80610c84575060008054906101000a900460ff16155b610cd9576040517f08c379a000000000000000000000000000000000000000000000000000000000815260040180806020018281038252602e8152602001806113eb602e913960400191505060405180910390fd5b60008060019054906101000a900460ff161590508015610d29576001600060016101000a81548160ff02191690831515021790555060016000806101000a81548160ff0219169083151502179055505b610d31610dff565b610d39610efd565b8015610d5a5760008060016101000a81548160ff0219169083151502179055505b50565b610dfa8363a9059cbb60e01b8484604051602401808373ffffffffffffffffffffffffffffffffffffffff16815260200182815260200192505050604051602081830303815290604052907bffffffffffffffffffffffffffffffffffffffffffffffffffffffff19166020820180517bffffffffffffffffffffffffffffffffffffffffffffffffffffffff83818316178352505050506110a4565b505050565b600060019054906101000a900460ff1680610e1e5750610e1d610c38565b5b80610e34575060008054906101000a900460ff16155b610e89576040517f08c379a000000000000000000000000000000000000000000000000000000000815260040180806020018281038252602e8152602001806113eb602e913960400191505060405180910390fd5b60008060019054906101000a900460ff161590508015610ed9576001600060016101000a81548160ff02191690831515021790555060016000806101000a81548160ff0219169083151502179055505b8015610efa5760008060016101000a81548160ff0219169083151502179055505b50565b600060019054906101000a900460ff1680610f1c5750610f1b610c38565b5b80610f32575060008054906101000a900460ff16155b610f87576040517f08c379a000000000000000000000000000000000000000000000000000000000815260040180806020018281038252602e8152602001806113eb602e913960400191505060405180910390fd5b60008060019054906101000a900460ff161590508015610fd7576001600060016101000a81548160ff02191690831515021790555060016000806101000a81548160ff0219169083151502179055505b6000610fe1610c30565b905080606560006101000a81548173ffffffffffffffffffffffffffffffffffffffff021916908373ffffffffffffffffffffffffffffffffffffffff1602179055508073ffffffffffffffffffffffffffffffffffffffff16600073ffffffffffffffffffffffffffffffffffffffff167f8be0079c531659141344cd1fd0a4f28419497f9722a3daafe3b4186f6b6457e060405160405180910390a35080156110a15760008060016101000a81548160ff0219169083151502179055505b50565b6060611106826040518060400160405280602081526020017f5361666545524332303a206c6f772d6c6576656c2063616c6c206661696c65648152508573ffffffffffffffffffffffffffffffffffffffff166111939092919063ffffffff16565b905060008151111561118e5780806020019051602081101561112757600080fd5b810190808051906020019092919050505061118d576040517f08c379a000000000000000000000000000000000000000000000000000000000815260040180806020018281038252602a815260200180611419602a913960400191505060405180910390fd5b5b505050565b60606111a284846000856111ab565b90509392505050565b60606111b6856113b1565b611228576040517f08c379a000000000000000000000000000000000000000000000000000000000815260040180806020018281038252601d8152602001807f416464726573733a2063616c6c20746f206e6f6e2d636f6e747261637400000081525060200191505060405180910390fd5b600060608673ffffffffffffffffffffffffffffffffffffffff1685876040518082805190602001908083835b602083106112785780518252602082019150602081019050602083039250611255565b6001836020036101000a03801982511681845116808217855250505050505090500191505060006040518083038185875af1925050503d80600081146112da576040519150601f19603f3d011682016040523d82523d6000602084013e6112df565b606091505b509150915081156112f45780925050506113a9565b6000815111156113075780518082602001fd5b836040517f08c379a00000000000000000000000000000000000000000000000000000000081526004018080602001828103825283818151815260200191508051906020019080838360005b8381101561136e578082015181840152602081019050611353565b50505050905090810190601f16801561139b5780820380516001836020036101000a031916815260200191505b509250505060405180910390fd5b949350505050565b600080823b90506000811191505091905056fe4f776e61626c653a206e6577206f776e657220697320746865207a65726f2061646472657373436f6e747261637420696e7374616e63652068617320616c7265616479206265656e20696e697469616c697a65645361666545524332303a204552433230206f7065726174696f6e20646964206e6f742073756363656564a2646970667358221220959deff2b9a39c46050dcaba41d31bc602da43544fb839c1f6fa747cfc27968b64736f6c634300060c0033",
  "immutableReferences": {},
  "source": "// SPDX-License-Identifier: MIT\npragma solidity ^0.6.0;\n\nimport \"../node_modules/@chainlink/contracts/src/v0.6/ChainlinkClient.sol\";\nimport \"../node_modules/@openzeppelin/contracts/utils/ReentrancyGuard.sol\";\nimport \"../node_modules/@openzeppelin/contracts/token/ERC20/SafeERC20.sol\";\nimport \"../node_modules/@openzeppelin/contracts/token/ERC20/ERC20.sol\";\nimport \"../node_modules/@openzeppelin/contracts/token/ERC721/ERC721.sol\";\nimport \"./utils/ProxyFactory.sol\";\nimport \"./utils/OwnableUpgradeSafe.sol\";\nimport \"./utils/ContextUpgradeSafe.sol\";\nimport \"./utils/Initializable.sol\";\nimport \"./interfaces/ILendingPoolAddressProvider.sol\";\nimport \"./interfaces/ILendingPoolCore.sol\";\nimport \"./interfaces/ILendingPool.sol\";\nimport \"./interfaces/AToken.sol\";\n\n\ncontract InterestCalculatorProxy is Initializable, OwnableUpgradeSafe {\n  using  SafeERC20 for ERC20;\n  event Initialized(address indexed thisAddress);\n  address public rentft;\n\n  // proxy admin would be the owner to prevent in fraud cases where the borrower\n  // doesn't return the nft back\n  function initialize(address _owner) public initializer {\n    OwnableUpgradeSafe.__Ownable_init();\n    OwnableUpgradeSafe.transferOwnership(_owner);\n    emit Initialized(address(this));\n  }\n\n  function deposit(address _reserve, address _lendingPool, address _lendingPoolCore, address _rentft) public {\n    rentft = _rentft;\n    uint reserveBalance = ERC20(_reserve).balanceOf(address(this));\n    ERC20(_reserve).approve(_lendingPoolCore, reserveBalance);\n    ILendingPool(_lendingPool).deposit(_reserve, reserveBalance, 0);\n  }\n\n  // allow rentft to withdraw from aave\n  function withdraw(address aDaiAddress, address daiAddress) public returns(uint256) {\n      require(msg.sender == rentft, \"Not Rentft\");\n        \n      uint256 balance = IERC20(aDaiAddress).balanceOf(address(this));\n      \n      // withdraw dai from aDai\n      AToken(aDaiAddress).redeem(balance);\n      ERC20(daiAddress).safeTransfer(rentft, balance);\n      \n      return balance;\n  }\n}\n\ncontract Rentft is\n  ProxyFactory,\n  ChainlinkClient,\n  ReentrancyGuard\n{\n  // using SafeMath for uint256;\n  using SafeERC20 for ERC20;\n  \n  event ProductAdded(address indexed nftAddress, uint256 indexed nftId, address indexed owner, uint256 duration, uint256 price);\n  event Rent(address indexed nftAddress, uint256 indexed nftId, address indexed borrower, address owner, uint256 borrowedAt, uint256 price, uint256 collateral);\n  event Return(address indexed nftAddress, uint256 indexed nftId, address borrower, address owner);\n\n\n\n  struct Asset {\n    address owner;\n    address borrower;\n    uint256 duration;    // number of days\n    uint256 borrowedAt;  // borrowed time to be verifed by returning\n    uint256 nftPrice;\n    uint256 collateral;  // for security\n  }\n\n  // proxy details\n  // owner => borrower => proxy\n  mapping(address => mapping(address => address)) public proxyInfo;\n  address public proxyBaseAddress;\n\n  // nft address => token id => asset info struct\n  mapping(address => mapping(uint256 => Asset)) public assets;\n\n  uint256 private nftPrice;\n  address private oracle;\n  bytes32 private jobId;\n  uint256 private chainlinkFee;\n  // this fee is added on top of the collateral for each hold day of the NFT.\n  // This is used to cancel out any potential swings in the price of the NFT\n  // denoted in bps (basis points). 1% is 100 bps. 0.1% is 10 bps and\n  // equivalently 0.01% is 1 bps. The mechanism for computing the rent will\n  // change in the future, to be more efficient and meaningful\n  uint256 public collateralDailyFee = 100;\n  address public daiAddress = 0xFf795577d9AC8bD7D90Ee22b6C1703490b6512FD;\n  address public aDaiAddress = 0x58AD4cB396411B691A9AAb6F74545b2C5217FE6a;\n\n  ILendingPoolAddressesProvider public lendingPoolAddressProvider;\n  ILendingPool public lendingPool;\n  ILendingPoolCore public lendingPoolCore;\n  \n  address tempNftAddress;\n  uint256 tempNftId;\n\n  /**\n   * Network: Kovan\n   * Oracle: Chainlink - 0x2f90A6D021db21e1B2A077c5a37B3C7E75D15b7e\n   * Job ID: Chainlink - 29fa9aa13bf1468788b7cc4a500a45b8\n   * Link: 0xa36085F69e2889c224210F603D836748e7dC0088\n   * Fee: 0.1 LINK\n   */\n  // provide aave address provider for the network you are working on\n  // get all aave related addresses through addressesProvider state var\n  // get all aToken reserve addresses through the core state var\n  constructor(address _proxyBaseAddress) public {\n    setPublicChainlinkToken();\n    oracle = 0x2f90A6D021db21e1B2A077c5a37B3C7E75D15b7e;\n    jobId = \"29fa9aa13bf1468788b7cc4a500a45b8\";\n    chainlinkFee = 0.1 * 10**18; // 0.1 LINK\n    proxyBaseAddress = _proxyBaseAddress;\n    // do we need this at the moment  ?\n    lendingPoolAddressProvider =ILendingPoolAddressesProvider(0x506B0B2CF20FAA8f38a4E2B524EE43e1f4458Cc5);\n    lendingPool = ILendingPool(lendingPoolAddressProvider.getLendingPool());\n    lendingPoolCore = ILendingPoolCore(lendingPoolAddressProvider.getLendingPoolCore());\n  }\n\n  // function to list the nft on the platform\n  // url will be the api endpoint to fetch nft price\n  function addProduct(\n    address nftAddress,\n    uint256 nftId,\n    uint256 duration,\n    string calldata _url\n  ) external {\n    require(nftAddress != address(0), \"Invalid NFT Address\");\n    \n    tempNftAddress = nftAddress;\n    tempNftId = nftId;\n    fetchNFTPrice(_url);\n\n    // need to verify whether the nftPrice will have the latest value\n    assets[nftAddress][nftId] = Asset(\n      msg.sender,\n      address(0),\n      duration,\n      0,\n      0, // price not yet fetched\n      0\n    );\n    \n    // transfer nft to this contract\n    ERC721(nftAddress).transferFrom(msg.sender, address(this), nftId);\n    emit ProductAdded(nftAddress, nftId, msg.sender, duration, nftPrice);\n  }\n\n   /**\n   * @dev calculates the total collateral price of the NFT. Imagine virtual museums that rent out\n   * the NFTs of the artists for some time. Therefore, there is a potential for reputation\n   * here. If the borrower has consistently good renting track-record, they will get more\n   * favourable quotes\n   * @param _duration number of days that the user wishes to rent out the NFT for. 1 means 1 day\n   * @return the total collateral + fee the borrower has to put up\n   **/\n  function calculateCollateral(\n    address _nft,\n    uint256 _tokenId,\n    uint256 _duration\n  ) public view returns (uint256) {\n    // ! TODO: need to ensure that this nftPrice is relevant, and is not old\n    // can we invoke chainlink price update here before computing the rentPrice?\n    // collateral = _nft_price * ((collateralDailyFee) ** _duration)\n    // collateral (with our service fee) = rentPrice * ourFee\n    // ! this must always be populated, otherwise an error will be thrown\n    // * interest compounding\n    uint256 basePrice = assets[_nft][_tokenId].nftPrice;\n    uint256 collateral = ((basePrice).add(basePrice.mul(collateralDailyFee).div(10000))).mul(_duration);\n    // this though returns price in ETH\n    // we need an ability to convert it into whatever\n    return collateral;\n  }\n\n  // to rent the contract:\n  // 1. the borrower must have paid the indicated collateral\n  // validations:\n  // 1. the borrower can't be borrowing the borrowed nft\n  // (this check also ensures that the borrower is not the\n  // owner & that the borrower isn't borrowing what he already borrowed)\n  // fetch price needs to be called since chainlink price won't be updated async\n  function rent(\n    address _borrower,\n    uint256 _duration,\n    address _nft,\n    uint256 _tokenId) external nonReentrant {\n    require(msg.sender != assets[_nft][_tokenId].owner, \"Owner cannot rent his own NFT\");\n    require(assets[_nft][_tokenId].duration > 0, \"could not find an NFT\");\n    \n    address owner = assets[_nft][_tokenId].owner;\n\n    // ! we only need DAI here to begin with\n    // require(msg.value > 0, \"you need to pay the collateral\");\n    // !! need to fix this calculation as the nft price value is older one here\n    uint256 collateral = calculateCollateral(_nft, _tokenId, _duration);\n    \n    // create proxy\n    createProxy(owner, _borrower);\n    \n    // ! will fail if the msg.sender hasn't approved us as the spender of their ERC20 tokens\n    transferToProxy(\n      daiAddress,\n      msg.sender,\n      collateral,\n      proxyInfo[owner][_borrower]\n    );\n    // deposit to aave\n    InterestCalculatorProxy(proxyInfo[owner][_borrower]).deposit(daiAddress, address(lendingPool), address(lendingPoolCore), address(this));\n    \n    // set asset vars\n    assets[_nft][_tokenId].borrower = _borrower;\n    assets[_nft][_tokenId].borrowedAt = now;\n    assets[_nft][_tokenId].collateral = collateral;\n    \n    // transfer nft to borrower\n    ERC721(_nft).transferFrom(address(this), _borrower, _tokenId);\n    emit Rent(_nft, _tokenId, msg.sender, assets[_nft][_tokenId].owner, assets[_nft][_tokenId].borrowedAt, assets[_nft][_tokenId].nftPrice, collateral);\n    \n  }\n  \n  // called by borrower\n  // fetch price needs to be called since chainlink price won't be updated async\n  function returnNFT(\n    address _nft,\n    uint256 _tokenId\n  ) external {\n      require(assets[_nft][_tokenId].duration > 0, \"could not find an NFT\");\n      require(assets[_nft][_tokenId].borrower == msg.sender, \"Not Borrower\");\n      // check (now-borrowedAt) <= duration in secs\n      uint256 durationInDays = now.sub(assets[_nft][_tokenId].borrowedAt).div(86400);\n      require(durationInDays <= assets[_nft][_tokenId].duration, \"Duration exceeded\");\n      \n      address owner = assets[_nft][_tokenId].owner;\n      uint256 collateralAvailable = assets[_nft][_tokenId].collateral;\n      \n      // redeem aDai to Dai in Proxy\n      uint256 daiReceived = InterestCalculatorProxy(proxyInfo[owner][msg.sender]).withdraw(aDaiAddress, daiAddress);\n      // calculate aave interest\n      uint256 interest = daiReceived.sub(collateralAvailable);\n      // split interest to both users\n      uint256 ownerPayout = interest.div(2);\n      uint256 borrowerPayout = interest.div(2);\n      \n      // get current nft price\n      require(nftPrice != 0, \"NFT Price not set\");\n      assets[_nft][_tokenId].nftPrice = nftPrice;\n      \n      // PAYOUT CALCULATION\n      uint256 calculatedRent = nftPrice.mul(collateralDailyFee).mul(durationInDays).div(10000);\n      // current price greater than initial price\n        if(calculatedRent > collateralAvailable) {\n            uint256 extra = calculatedRent.sub(collateralAvailable);\n          \n          // can compensate from borrower's share of interest\n          if(borrowerPayout >= extra) {\n              borrowerPayout = borrowerPayout.sub(extra);\n              ownerPayout = ownerPayout.add(extra);\n          } else {\n              // assign borrower's entire interest to owner\n              borrowerPayout = 0;\n              ownerPayout = ownerPayout.add(collateralAvailable);\n          } \n        } else {\n          // pay rent to owner, send remaining to borrower\n          ownerPayout = ownerPayout.add(calculatedRent);\n          borrowerPayout = borrowerPayout.add(collateralAvailable.sub(calculatedRent));\n      }\n\n      // send nft to owner\n      ERC721(_nft).transferFrom(msg.sender, owner, _tokenId);\n      \n      //send payout amounts to both\n      ERC20(daiAddress).safeTransfer(owner, ownerPayout);\n      ERC20(daiAddress).safeTransfer(msg.sender, borrowerPayout);\n      \n\n      // set assets params to null\n      assets[_nft][_tokenId].duration = 0;\n      emit Return(_nft, _tokenId, msg.sender, owner);\n  }\n  \n  // Allow owner to withdraw collateral\n  // in case of Scam (borrower not returning NFT after set duration)\n  function redeemCollateral(\n    address _nft,\n    uint256 _tokenId\n  ) external {\n      require(assets[_nft][_tokenId].duration > 0, \"could not find an NFT\");\n      require(assets[_nft][_tokenId].owner == msg.sender, \"Not Owner\");\n      \n      uint256 durationInDays = now.sub(assets[_nft][_tokenId].borrowedAt).div(86400);\n      require(durationInDays > assets[_nft][_tokenId].duration, \"Duration not exceeded\");\n      \n      address borrower = assets[_nft][_tokenId].borrower;\n      \n      // redeem aDai to Dai in Proxy\n      uint256 daiReceived = InterestCalculatorProxy(proxyInfo[msg.sender][borrower]).withdraw(aDaiAddress, daiAddress);\n      \n      // send dai\n      ERC20(daiAddress).safeTransfer(msg.sender, daiReceived);\n  }\n  \n  /**\n   * @dev transfers an amount from a user to the destination proxy address where it\n   * subsequently gets deposited into Aave\n   * @param _reserve the address of the reserve where the amount is being transferred\n   * @param _user the address of the user from where the transfer is happening\n   * @param _amount the amount being transferred\n   **/\n  function transferToProxy(\n    address _reserve,\n    address payable _user,\n    uint256 _amount,\n    address _proxy\n  ) private {\n      require(\n        msg.value == 0,\n        \"User is sending ETH along with the ERC20 transfer.\"\n      );\n      // ! our contract should be approved to move his ERC20 funds\n      ERC20(_reserve).safeTransferFrom(_user, _proxy, _amount);\n  }\n\n  // create the proxy contract for managing interest when a borrower rents it out\n  function createProxy(address _owner, address _borrower) internal {\n    bytes memory _payload = abi.encodeWithSignature(\n      \"initialize(address)\",\n      _owner\n    );\n    // Deploy proxy\n    // for testing the address of the proxy contract which will\n    // be used to redirect interest will come here\n    address _intermediate = deployMinimal(proxyBaseAddress, _payload);\n    // user address is just recorded for tracking the proxy for the particular pair\n    // TODO: need to test this for same owner but different user\n    proxyInfo[_owner][_borrower] = _intermediate;\n  }\n\n  // check whether the proxy contract exists or not for a owner-borrower pair\n  function getProxy(address _owner, address _borrower)\n    internal\n    view\n    returns (address)\n  {\n    return proxyInfo[_owner][_borrower];\n  }\n  \n  function fetchNFTPrice(string memory _url) internal {\n      Chainlink.Request memory request = buildChainlinkRequest(\n      jobId,\n      address(this),\n      this.fulfill.selector\n    );\n\n    // Set the URL to perform the GET request on\n    request.add(\"get\", _url);\n\n    // Set the path to find the desired data in the API response, where the response format is:\n    request.add(\"path\", \"last_sale.payment_token.usd_price\");\n\n    // Multiply the result by 10^18 to remove decimals\n    request.addInt(\"times\", 1000000000000000000);\n\n    // Sends the request\n    sendChainlinkRequestTo(oracle, request, chainlinkFee);\n  }\n  // to be called before rent and return functions\n  function fetchNFTPriceBeforeReturn(string calldata _url) external {\n      Chainlink.Request memory request = buildChainlinkRequest(\n      jobId,\n      address(this),\n      this.fulfillExternal.selector\n    );\n\n    // Set the URL to perform the GET request on\n    request.add(\"get\", _url);\n\n    // Set the path to find the desired data in the API response, where the response format is:\n    request.add(\"path\", \"last_sale.payment_token.usd_price\");\n\n    // Multiply the result by 10^18 to remove decimals\n    request.addInt(\"times\", 1000000000000000000);\n\n    // Sends the request\n    sendChainlinkRequestTo(oracle, request, chainlinkFee);\n  }\n\n  /**\n   * Receive the price response in the form of uint256\n   */\n  function fulfill(bytes32 _requestId, uint256 _price)\n    public\n    recordChainlinkFulfillment(_requestId)\n  {\n    assets[tempNftAddress][tempNftId].nftPrice = _price;\n  }\n  \n  function fulfillExternal(bytes32 _requestId, uint256 _price)\n    public\n    recordChainlinkFulfillment(_requestId)\n  {\n    nftPrice = _price;\n  }\n}\n",
  "sourcePath": "/Users/shredder/git/renft/renft-contracts/contracts/rentft.sol",
  "compiler": {
    "name": "solc",
    "version": "0.6.12+commit.27d51765.Emscripten.clang"
  },
  "schemaVersion": "3.2.5",
  "updatedAt": "2020-10-19T09:46:50.355Z",
  "devdoc": {
    "kind": "dev",
    "methods": {
      "owner()": {
        "details": "Returns the address of the current owner."
      },
      "renounceOwnership()": {
        "details": "Leaves the contract without owner. It will not be possible to call `onlyOwner` functions anymore. Can only be called by the current owner. NOTE: Renouncing ownership will leave the contract without an owner, thereby removing any functionality that is only available to the owner."
      },
      "transferOwnership(address)": {
        "details": "Transfers ownership of the contract to a new account (`newOwner`). Can only be called by the current owner."
      }
    },
    "version": 1
  },
  "userdoc": {
    "kind": "user",
    "methods": {},
    "version": 1
  }
}