{
  "contractName": "ProxyFactory",
  "abi": [
    {
      "anonymous": false,
      "inputs": [
        {
          "indexed": false,
          "internalType": "address",
          "name": "proxy",
          "type": "address"
        }
      ],
      "name": "ProxyCreated",
      "type": "event"
    },
    {
      "inputs": [
        {
          "internalType": "address",
          "name": "_logic",
          "type": "address"
        },
        {
          "internalType": "bytes",
          "name": "_data",
          "type": "bytes"
        }
      ],
      "name": "deployMinimal",
      "outputs": [
        {
          "internalType": "address",
          "name": "proxy",
          "type": "address"
        }
      ],
      "stateMutability": "nonpayable",
      "type": "function"
    }
  ],
  "bytecode": "0x608060405234801561001057600080fd5b50610359806100206000396000f3fe608060405234801561001057600080fd5b506004361061002b5760003560e01c8063b3eeb5e214610030575b600080fd5b6101096004803603604081101561004657600080fd5b81019080803573ffffffffffffffffffffffffffffffffffffffff1690602001909291908035906020019064010000000081111561008357600080fd5b82018360208201111561009557600080fd5b803590602001918460018302840111640100000000831117156100b757600080fd5b91908080601f016020809104026020016040519081016040528093929190818152602001838380828437600081840152601f19601f820116905080830192505050505050509192919290505050610135565b604051808273ffffffffffffffffffffffffffffffffffffffff16815260200191505060405180910390f35b6000808360601b90506040517f3d602d80600a3d3981f3363d3d373d3d3d363d7300000000000000000000000081528160148201527f5af43d82803e903d91602b57fd5bf3000000000000000000000000000000000060288201526037816000f09250507efffc2da0b561cae30d9826d37709e9421c4725faebc226cbbb7ef5fc5e734982604051808273ffffffffffffffffffffffffffffffffffffffff16815260200191505060405180910390a160008351111561031c5760008273ffffffffffffffffffffffffffffffffffffffff16846040518082805190602001908083835b6020831061023c5780518252602082019150602081019050602083039250610219565b6001836020036101000a0380198251168184511680821785525050505050509050019150506000604051808303816000865af19150503d806000811461029e576040519150601f19603f3d011682016040523d82523d6000602084013e6102a3565b606091505b505090508061031a576040517f08c379a00000000000000000000000000000000000000000000000000000000081526004018080602001828103825260178152602001807f636f6e7374727563746f722063616c6c206661696c656400000000000000000081525060200191505060405180910390fd5b505b509291505056fea26469706673582212200629d84a180c3df74ff0e225546f87080274bdc0c10e5cf511c0c7ebb01a064464736f6c634300060c0033",
  "immutableReferences": {},
  "source": "// SPDX-License-Identifier: MIT\npragma solidity ^0.6.0;\n\n// solium-disable security/no-inline-assembly\n// solium-disable security/no-low-level-calls\n// Open Zepplin proxy factory to create a proxy contract to monitor aave interest for a partcular owner - leasee pair\ncontract ProxyFactory {\n  event ProxyCreated(address proxy);\n\n  function deployMinimal(address _logic, bytes memory _data)\n    public\n    returns (address proxy)\n  {\n    // Adapted from https://github.com/optionality/clone-factory/blob/32782f82dfc5a00d103a7e61a17a5dedbd1e8e9d/contracts/CloneFactory.sol\n    bytes20 targetBytes = bytes20(_logic);\n    assembly {\n      let clone := mload(0x40)\n      mstore(\n        clone,\n        0x3d602d80600a3d3981f3363d3d373d3d3d363d73000000000000000000000000\n      )\n      mstore(add(clone, 0x14), targetBytes)\n      mstore(\n        add(clone, 0x28),\n        0x5af43d82803e903d91602b57fd5bf30000000000000000000000000000000000\n      )\n      proxy := create(0, clone, 0x37)\n    }\n\n    emit ProxyCreated(address(proxy));\n\n    if (_data.length > 0) {\n      (bool success, ) = proxy.call(_data);\n      require(success, \"constructor call failed\");\n    }\n  }\n}\n",
  "sourcePath": "/Users/shredder/git/renft-contracts/contracts/utils/ProxyFactory.sol",
  "compiler": {
    "name": "solc",
    "version": "0.6.12+commit.27d51765.Emscripten.clang"
  },
  "schemaVersion": "3.2.5",
  "updatedAt": "2020-09-26T14:06:13.858Z",
  "devdoc": {
    "kind": "dev",
    "methods": {},
    "version": 1
  },
  "userdoc": {
    "kind": "user",
    "methods": {},
    "version": 1
  }
}