{
  "contractName": "Rentft",
  "abi": [
    {
      "inputs": [
        {
          "internalType": "address",
          "name": "_proxyBaseAddress",
          "type": "address"
        }
      ],
      "stateMutability": "nonpayable",
      "type": "constructor"
    },
    {
      "anonymous": false,
      "inputs": [
        {
          "indexed": true,
          "internalType": "bytes32",
          "name": "id",
          "type": "bytes32"
        }
      ],
      "name": "ChainlinkCancelled",
      "type": "event"
    },
    {
      "anonymous": false,
      "inputs": [
        {
          "indexed": true,
          "internalType": "bytes32",
          "name": "id",
          "type": "bytes32"
        }
      ],
      "name": "ChainlinkFulfilled",
      "type": "event"
    },
    {
      "anonymous": false,
      "inputs": [
        {
          "indexed": true,
          "internalType": "bytes32",
          "name": "id",
          "type": "bytes32"
        }
      ],
      "name": "ChainlinkRequested",
      "type": "event"
    },
    {
      "anonymous": false,
      "inputs": [
        {
          "indexed": true,
          "internalType": "address",
          "name": "nftAddress",
          "type": "address"
        },
        {
          "indexed": true,
          "internalType": "uint256",
          "name": "nftId",
          "type": "uint256"
        },
        {
          "indexed": true,
          "internalType": "address",
          "name": "owner",
          "type": "address"
        },
        {
          "indexed": false,
          "internalType": "uint256",
          "name": "duration",
          "type": "uint256"
        },
        {
          "indexed": false,
          "internalType": "uint256",
          "name": "price",
          "type": "uint256"
        }
      ],
      "name": "ProductAdded",
      "type": "event"
    },
    {
      "anonymous": false,
      "inputs": [
        {
          "indexed": false,
          "internalType": "address",
          "name": "proxy",
          "type": "address"
        }
      ],
      "name": "ProxyCreated",
      "type": "event"
    },
    {
      "anonymous": false,
      "inputs": [
        {
          "indexed": true,
          "internalType": "address",
          "name": "nftAddress",
          "type": "address"
        },
        {
          "indexed": true,
          "internalType": "uint256",
          "name": "nftId",
          "type": "uint256"
        },
        {
          "indexed": true,
          "internalType": "address",
          "name": "borrower",
          "type": "address"
        },
        {
          "indexed": false,
          "internalType": "address",
          "name": "owner",
          "type": "address"
        },
        {
          "indexed": false,
          "internalType": "uint256",
          "name": "borrowedAt",
          "type": "uint256"
        },
        {
          "indexed": false,
          "internalType": "uint256",
          "name": "price",
          "type": "uint256"
        },
        {
          "indexed": false,
          "internalType": "uint256",
          "name": "collateral",
          "type": "uint256"
        }
      ],
      "name": "Rent",
      "type": "event"
    },
    {
      "anonymous": false,
      "inputs": [
        {
          "indexed": true,
          "internalType": "address",
          "name": "nftAddress",
          "type": "address"
        },
        {
          "indexed": true,
          "internalType": "uint256",
          "name": "nftId",
          "type": "uint256"
        },
        {
          "indexed": false,
          "internalType": "address",
          "name": "borrower",
          "type": "address"
        },
        {
          "indexed": false,
          "internalType": "address",
          "name": "owner",
          "type": "address"
        }
      ],
      "name": "Return",
      "type": "event"
    },
    {
      "inputs": [],
      "name": "aDaiAddress",
      "outputs": [
        {
          "internalType": "address",
          "name": "",
          "type": "address"
        }
      ],
      "stateMutability": "view",
      "type": "function"
    },
    {
      "inputs": [
        {
          "internalType": "address",
          "name": "",
          "type": "address"
        },
        {
          "internalType": "uint256",
          "name": "",
          "type": "uint256"
        }
      ],
      "name": "assets",
      "outputs": [
        {
          "internalType": "address",
          "name": "owner",
          "type": "address"
        },
        {
          "internalType": "address",
          "name": "borrower",
          "type": "address"
        },
        {
          "internalType": "uint256",
          "name": "duration",
          "type": "uint256"
        },
        {
          "internalType": "uint256",
          "name": "borrowedAt",
          "type": "uint256"
        },
        {
          "internalType": "uint256",
          "name": "nftPrice",
          "type": "uint256"
        },
        {
          "internalType": "uint256",
          "name": "collateral",
          "type": "uint256"
        }
      ],
      "stateMutability": "view",
      "type": "function"
    },
    {
      "inputs": [],
      "name": "collateralDailyFee",
      "outputs": [
        {
          "internalType": "uint256",
          "name": "",
          "type": "uint256"
        }
      ],
      "stateMutability": "view",
      "type": "function"
    },
    {
      "inputs": [],
      "name": "daiAddress",
      "outputs": [
        {
          "internalType": "address",
          "name": "",
          "type": "address"
        }
      ],
      "stateMutability": "view",
      "type": "function"
    },
    {
      "inputs": [
        {
          "internalType": "address",
          "name": "_logic",
          "type": "address"
        },
        {
          "internalType": "bytes",
          "name": "_data",
          "type": "bytes"
        }
      ],
      "name": "deployMinimal",
      "outputs": [
        {
          "internalType": "address",
          "name": "proxy",
          "type": "address"
        }
      ],
      "stateMutability": "nonpayable",
      "type": "function"
    },
    {
      "inputs": [],
      "name": "lendingPool",
      "outputs": [
        {
          "internalType": "contract ILendingPool",
          "name": "",
          "type": "address"
        }
      ],
      "stateMutability": "view",
      "type": "function"
    },
    {
      "inputs": [],
      "name": "lendingPoolAddressProvider",
      "outputs": [
        {
          "internalType": "contract ILendingPoolAddressesProvider",
          "name": "",
          "type": "address"
        }
      ],
      "stateMutability": "view",
      "type": "function"
    },
    {
      "inputs": [],
      "name": "lendingPoolCore",
      "outputs": [
        {
          "internalType": "contract ILendingPoolCore",
          "name": "",
          "type": "address"
        }
      ],
      "stateMutability": "view",
      "type": "function"
    },
    {
      "inputs": [],
      "name": "proxyBaseAddress",
      "outputs": [
        {
          "internalType": "address",
          "name": "",
          "type": "address"
        }
      ],
      "stateMutability": "view",
      "type": "function"
    },
    {
      "inputs": [
        {
          "internalType": "address",
          "name": "",
          "type": "address"
        },
        {
          "internalType": "address",
          "name": "",
          "type": "address"
        }
      ],
      "name": "proxyInfo",
      "outputs": [
        {
          "internalType": "address",
          "name": "",
          "type": "address"
        }
      ],
      "stateMutability": "view",
      "type": "function"
    },
    {
      "inputs": [
        {
          "internalType": "address",
          "name": "nftAddress",
          "type": "address"
        },
        {
          "internalType": "uint256",
          "name": "nftId",
          "type": "uint256"
        },
        {
          "internalType": "uint256",
          "name": "duration",
          "type": "uint256"
        },
        {
          "internalType": "string",
          "name": "_url",
          "type": "string"
        }
      ],
      "name": "addProduct",
      "outputs": [],
      "stateMutability": "nonpayable",
      "type": "function"
    },
    {
      "inputs": [
        {
          "internalType": "address",
          "name": "_nft",
          "type": "address"
        },
        {
          "internalType": "uint256",
          "name": "_tokenId",
          "type": "uint256"
        },
        {
          "internalType": "uint256",
          "name": "_duration",
          "type": "uint256"
        }
      ],
      "name": "calculateCollateral",
      "outputs": [
        {
          "internalType": "uint256",
          "name": "",
          "type": "uint256"
        }
      ],
      "stateMutability": "view",
      "type": "function"
    },
    {
      "inputs": [
        {
          "internalType": "address",
          "name": "_borrower",
          "type": "address"
        },
        {
          "internalType": "uint256",
          "name": "_duration",
          "type": "uint256"
        },
        {
          "internalType": "address",
          "name": "_nft",
          "type": "address"
        },
        {
          "internalType": "uint256",
          "name": "_tokenId",
          "type": "uint256"
        }
      ],
      "name": "rent",
      "outputs": [],
      "stateMutability": "nonpayable",
      "type": "function"
    },
    {
      "inputs": [
        {
          "internalType": "address",
          "name": "_nft",
          "type": "address"
        },
        {
          "internalType": "uint256",
          "name": "_tokenId",
          "type": "uint256"
        }
      ],
      "name": "returnNFT",
      "outputs": [],
      "stateMutability": "nonpayable",
      "type": "function"
    },
    {
      "inputs": [
        {
          "internalType": "address",
          "name": "_nft",
          "type": "address"
        },
        {
          "internalType": "uint256",
          "name": "_tokenId",
          "type": "uint256"
        }
      ],
      "name": "redeemCollateral",
      "outputs": [],
      "stateMutability": "nonpayable",
      "type": "function"
    },
    {
      "inputs": [
        {
          "internalType": "string",
          "name": "_url",
          "type": "string"
        }
      ],
      "name": "fetchNFTPriceBeforeReturn",
      "outputs": [],
      "stateMutability": "nonpayable",
      "type": "function"
    },
    {
      "inputs": [
        {
          "internalType": "bytes32",
          "name": "_requestId",
          "type": "bytes32"
        },
        {
          "internalType": "uint256",
          "name": "_price",
          "type": "uint256"
        }
      ],
      "name": "fulfill",
      "outputs": [],
      "stateMutability": "nonpayable",
      "type": "function"
    },
    {
      "inputs": [
        {
          "internalType": "bytes32",
          "name": "_requestId",
          "type": "bytes32"
        },
        {
          "internalType": "uint256",
          "name": "_price",
          "type": "uint256"
        }
      ],
      "name": "fulfillExternal",
      "outputs": [],
      "stateMutability": "nonpayable",
      "type": "function"
    }
  ],
  "bytecode": "0x608060405260016004556064600e5573ff795577d9ac8bd7d90ee22b6c1703490b6512fd600f60006101000a81548173ffffffffffffffffffffffffffffffffffffffff021916908373ffffffffffffffffffffffffffffffffffffffff1602179055507358ad4cb396411b691a9aab6f74545b2c5217fe6a601060006101000a81548173ffffffffffffffffffffffffffffffffffffffff021916908373ffffffffffffffffffffffffffffffffffffffff160217905550348015620000c557600080fd5b506040516200470d3803806200470d83398181016040526020811015620000eb57600080fd5b81019080805190602001909291905050506001600681905550620001146200040860201b60201c565b732f90a6d021db21e1b2a077c5a37b3c7e75d15b7e600b60006101000a81548173ffffffffffffffffffffffffffffffffffffffff021916908373ffffffffffffffffffffffffffffffffffffffff1602179055507f3239666139616131336266313436383738386237636334613530306134356238600c8190555067016345785d8a0000600d8190555080600860006101000a81548173ffffffffffffffffffffffffffffffffffffffff021916908373ffffffffffffffffffffffffffffffffffffffff16021790555073506b0b2cf20faa8f38a4e2b524ee43e1f4458cc5601160006101000a81548173ffffffffffffffffffffffffffffffffffffffff021916908373ffffffffffffffffffffffffffffffffffffffff160217905550601160009054906101000a900473ffffffffffffffffffffffffffffffffffffffff1673ffffffffffffffffffffffffffffffffffffffff16630261bf8b6040518163ffffffff1660e01b815260040160206040518083038186803b1580156200029e57600080fd5b505afa158015620002b3573d6000803e3d6000fd5b505050506040513d6020811015620002ca57600080fd5b8101908080519060200190929190505050601260006101000a81548173ffffffffffffffffffffffffffffffffffffffff021916908373ffffffffffffffffffffffffffffffffffffffff160217905550601160009054906101000a900473ffffffffffffffffffffffffffffffffffffffff1673ffffffffffffffffffffffffffffffffffffffff1663ed6ff7606040518163ffffffff1660e01b815260040160206040518083038186803b1580156200038457600080fd5b505afa15801562000399573d6000803e3d6000fd5b505050506040513d6020811015620003b057600080fd5b8101908080519060200190929190505050601360006101000a81548173ffffffffffffffffffffffffffffffffffffffff021916908373ffffffffffffffffffffffffffffffffffffffff16021790555050620004f6565b620004b073c89bd4e1632d3a43cb03aaad5262cbe4038bc57173ffffffffffffffffffffffffffffffffffffffff166338cc48316040518163ffffffff1660e01b815260040160206040518083038186803b1580156200046757600080fd5b505afa1580156200047c573d6000803e3d6000fd5b505050506040513d60208110156200049357600080fd5b8101908080519060200190929190505050620004b260201b60201c565b565b80600260006101000a81548173ffffffffffffffffffffffffffffffffffffffff021916908373ffffffffffffffffffffffffffffffffffffffff16021790555050565b61420780620005066000396000f3fe608060405234801561001057600080fd5b50600436106101165760003560e01c80638c42d775116100a2578063b5e9a9c811610071578063b5e9a9c814610606578063be56401b1461067e578063ccb568ec146106b2578063f1fdb5d214610700578063f8ac635e1461071e57610116565b80638c42d775146104475780639acd81b31461047f578063a59a9973146104cd578063b3eeb5e21461050157610116565b80634357855e116100e95780634357855e1461022357806351eb27c01461025b578063609b61021461030c578063633803001461038557806389482e31146103b957610116565b8063098b20411461011b5780630d7ff8871461014f5780632c387275146101835780633d0d7c01146101b7575b600080fd5b6101236107cb565b604051808273ffffffffffffffffffffffffffffffffffffffff16815260200191505060405180910390f35b6101576107f1565b604051808273ffffffffffffffffffffffffffffffffffffffff16815260200191505060405180910390f35b61018b610817565b604051808273ffffffffffffffffffffffffffffffffffffffff16815260200191505060405180910390f35b61020d600480360360608110156101cd57600080fd5b81019080803573ffffffffffffffffffffffffffffffffffffffff169060200190929190803590602001909291908035906020019092919050505061083d565b6040518082815260200191505060405180910390f35b6102596004803603604081101561023957600080fd5b8101908080359060200190929190803590602001909291905050506108f3565b005b6102a76004803603604081101561027157600080fd5b81019080803573ffffffffffffffffffffffffffffffffffffffff16906020019092919080359060200190929190505050610a8f565b604051808773ffffffffffffffffffffffffffffffffffffffff1681526020018673ffffffffffffffffffffffffffffffffffffffff168152602001858152602001848152602001838152602001828152602001965050505050505060405180910390f35b6103836004803603602081101561032257600080fd5b810190808035906020019064010000000081111561033f57600080fd5b82018360208201111561035157600080fd5b8035906020019184600183028401116401000000008311171561037357600080fd5b9091929391929390505050610b18565b005b61038d610cad565b604051808273ffffffffffffffffffffffffffffffffffffffff16815260200191505060405180910390f35b61041b600480360360408110156103cf57600080fd5b81019080803573ffffffffffffffffffffffffffffffffffffffff169060200190929190803573ffffffffffffffffffffffffffffffffffffffff169060200190929190505050610cd3565b604051808273ffffffffffffffffffffffffffffffffffffffff16815260200191505060405180910390f35b61047d6004803603604081101561045d57600080fd5b810190808035906020019092919080359060200190929190505050610d15565b005b6104cb6004803603604081101561049557600080fd5b81019080803573ffffffffffffffffffffffffffffffffffffffff16906020019092919080359060200190929190505050610e3c565b005b6104d56113d2565b604051808273ffffffffffffffffffffffffffffffffffffffff16815260200191505060405180910390f35b6105da6004803603604081101561051757600080fd5b81019080803573ffffffffffffffffffffffffffffffffffffffff1690602001909291908035906020019064010000000081111561055457600080fd5b82018360208201111561056657600080fd5b8035906020019184600183028401116401000000008311171561058857600080fd5b91908080601f016020809104026020016040519081016040528093929190818152602001838380828437600081840152601f19601f8201169050808301925050505050505091929192905050506113f8565b604051808273ffffffffffffffffffffffffffffffffffffffff16815260200191505060405180910390f35b61067c6004803603608081101561061c57600080fd5b81019080803573ffffffffffffffffffffffffffffffffffffffff16906020019092919080359060200190929190803573ffffffffffffffffffffffffffffffffffffffff169060200190929190803590602001909291905050506115e6565b005b610686611f23565b604051808273ffffffffffffffffffffffffffffffffffffffff16815260200191505060405180910390f35b6106fe600480360360408110156106c857600080fd5b81019080803573ffffffffffffffffffffffffffffffffffffffff16906020019092919080359060200190929190505050611f49565b005b61070861291a565b6040518082815260200191505060405180910390f35b6107c96004803603608081101561073457600080fd5b81019080803573ffffffffffffffffffffffffffffffffffffffff16906020019092919080359060200190929190803590602001909291908035906020019064010000000081111561078557600080fd5b82018360208201111561079757600080fd5b803590602001918460018302840111640100000000831117156107b957600080fd5b9091929391929390505050612920565b005b601060009054906101000a900473ffffffffffffffffffffffffffffffffffffffff1681565b601360009054906101000a900473ffffffffffffffffffffffffffffffffffffffff1681565b600f60009054906101000a900473ffffffffffffffffffffffffffffffffffffffff1681565b600080600960008673ffffffffffffffffffffffffffffffffffffffff1673ffffffffffffffffffffffffffffffffffffffff168152602001908152602001600020600085815260200190815260200160002060040154905060006108e5846108d76108c86127106108ba600e5488612cdc90919063ffffffff16565b612d6290919063ffffffff16565b85612df190919063ffffffff16565b612cdc90919063ffffffff16565b905080925050509392505050565b816005600082815260200190815260200160002060009054906101000a900473ffffffffffffffffffffffffffffffffffffffff1673ffffffffffffffffffffffffffffffffffffffff163373ffffffffffffffffffffffffffffffffffffffff16146109ab576040517f08c379a00000000000000000000000000000000000000000000000000000000081526004018080602001828103825260288152602001806141806028913960400191505060405180910390fd5b6005600082815260200190815260200160002060006101000a81549073ffffffffffffffffffffffffffffffffffffffff0219169055807f7cc135e0cebb02c3480ae5d74d377283180a2601f8f644edf7987b009316c63a60405160405180910390a28160096000601460009054906101000a900473ffffffffffffffffffffffffffffffffffffffff1673ffffffffffffffffffffffffffffffffffffffff1673ffffffffffffffffffffffffffffffffffffffff1681526020019081526020016000206000601554815260200190815260200160002060040181905550505050565b6009602052816000526040600020602052806000526040600020600091509150508060000160009054906101000a900473ffffffffffffffffffffffffffffffffffffffff16908060010160009054906101000a900473ffffffffffffffffffffffffffffffffffffffff16908060020154908060030154908060040154908060050154905086565b610b20614061565b610b34600c5430638c42d77560e01b612e79565b9050610bc46040518060400160405280600381526020017f676574000000000000000000000000000000000000000000000000000000000081525084848080601f016020809104026020016040519081016040528093929190818152602001838380828437600081840152601f19601f8201169050808301925050505050505083612eaa9092919063ffffffff16565b610c266040518060400160405280600481526020017f706174680000000000000000000000000000000000000000000000000000000081525060405180606001604052806021815260200161415f6021913983612eaa9092919063ffffffff16565b610c786040518060400160405280600581526020017f74696d6573000000000000000000000000000000000000000000000000000000815250670de0b6b3a764000083612edd9092919063ffffffff16565b610ca7600b60009054906101000a900473ffffffffffffffffffffffffffffffffffffffff1682600d54612f10565b50505050565b601160009054906101000a900473ffffffffffffffffffffffffffffffffffffffff1681565b60076020528160005260406000206020528060005260406000206000915091509054906101000a900473ffffffffffffffffffffffffffffffffffffffff1681565b816005600082815260200190815260200160002060009054906101000a900473ffffffffffffffffffffffffffffffffffffffff1673ffffffffffffffffffffffffffffffffffffffff163373ffffffffffffffffffffffffffffffffffffffff1614610dcd576040517f08c379a00000000000000000000000000000000000000000000000000000000081526004018080602001828103825260288152602001806141806028913960400191505060405180910390fd5b6005600082815260200190815260200160002060006101000a81549073ffffffffffffffffffffffffffffffffffffffff0219169055807f7cc135e0cebb02c3480ae5d74d377283180a2601f8f644edf7987b009316c63a60405160405180910390a281600a81905550505050565b6000600960008473ffffffffffffffffffffffffffffffffffffffff1673ffffffffffffffffffffffffffffffffffffffff16815260200190815260200160002060008381526020019081526020016000206002015411610f05576040517f08c379a00000000000000000000000000000000000000000000000000000000081526004018080602001828103825260158152602001807f636f756c64206e6f742066696e6420616e204e4654000000000000000000000081525060200191505060405180910390fd5b3373ffffffffffffffffffffffffffffffffffffffff16600960008473ffffffffffffffffffffffffffffffffffffffff1673ffffffffffffffffffffffffffffffffffffffff168152602001908152602001600020600083815260200190815260200160002060000160009054906101000a900473ffffffffffffffffffffffffffffffffffffffff1673ffffffffffffffffffffffffffffffffffffffff1614611019576040517f08c379a00000000000000000000000000000000000000000000000000000000081526004018080602001828103825260098152602001807f4e6f74204f776e6572000000000000000000000000000000000000000000000081525060200191505060405180910390fd5b600061109662015180611088600960008773ffffffffffffffffffffffffffffffffffffffff1673ffffffffffffffffffffffffffffffffffffffff1681526020019081526020016000206000868152602001908152602001600020600301544261319990919063ffffffff16565b612d6290919063ffffffff16565b9050600960008473ffffffffffffffffffffffffffffffffffffffff1673ffffffffffffffffffffffffffffffffffffffff1681526020019081526020016000206000838152602001908152602001600020600201548111611160576040517f08c379a00000000000000000000000000000000000000000000000000000000081526004018080602001828103825260158152602001807f4475726174696f6e206e6f74206578636565646564000000000000000000000081525060200191505060405180910390fd5b6000600960008573ffffffffffffffffffffffffffffffffffffffff1673ffffffffffffffffffffffffffffffffffffffff168152602001908152602001600020600084815260200190815260200160002060010160009054906101000a900473ffffffffffffffffffffffffffffffffffffffff1690506000600760003373ffffffffffffffffffffffffffffffffffffffff1673ffffffffffffffffffffffffffffffffffffffff16815260200190815260200160002060008373ffffffffffffffffffffffffffffffffffffffff1673ffffffffffffffffffffffffffffffffffffffff16815260200190815260200160002060009054906101000a900473ffffffffffffffffffffffffffffffffffffffff1673ffffffffffffffffffffffffffffffffffffffff1663f940e385601060009054906101000a900473ffffffffffffffffffffffffffffffffffffffff16600f60009054906101000a900473ffffffffffffffffffffffffffffffffffffffff166040518363ffffffff1660e01b8152600401808373ffffffffffffffffffffffffffffffffffffffff1681526020018273ffffffffffffffffffffffffffffffffffffffff16815260200192505050602060405180830381600087803b15801561134157600080fd5b505af1158015611355573d6000803e3d6000fd5b505050506040513d602081101561136b57600080fd5b810190808051906020019092919050505090506113cb3382600f60009054906101000a900473ffffffffffffffffffffffffffffffffffffffff1673ffffffffffffffffffffffffffffffffffffffff166132229092919063ffffffff16565b5050505050565b601260009054906101000a900473ffffffffffffffffffffffffffffffffffffffff1681565b6000808360601b90506040517f3d602d80600a3d3981f3363d3d373d3d3d363d7300000000000000000000000081528160148201527f5af43d82803e903d91602b57fd5bf3000000000000000000000000000000000060288201526037816000f09250507efffc2da0b561cae30d9826d37709e9421c4725faebc226cbbb7ef5fc5e734982604051808273ffffffffffffffffffffffffffffffffffffffff16815260200191505060405180910390a16000835111156115df5760008273ffffffffffffffffffffffffffffffffffffffff16846040518082805190602001908083835b602083106114ff57805182526020820191506020810190506020830392506114dc565b6001836020036101000a0380198251168184511680821785525050505050509050019150506000604051808303816000865af19150503d8060008114611561576040519150601f19603f3d011682016040523d82523d6000602084013e611566565b606091505b50509050806115dd576040517f08c379a00000000000000000000000000000000000000000000000000000000081526004018080602001828103825260178152602001807f636f6e7374727563746f722063616c6c206661696c656400000000000000000081525060200191505060405180910390fd5b505b5092915050565b6002600654141561165f576040517f08c379a000000000000000000000000000000000000000000000000000000000815260040180806020018281038252601f8152602001807f5265656e7472616e637947756172643a207265656e7472616e742063616c6c0081525060200191505060405180910390fd5b6002600681905550600960008373ffffffffffffffffffffffffffffffffffffffff1673ffffffffffffffffffffffffffffffffffffffff168152602001908152602001600020600082815260200190815260200160002060000160009054906101000a900473ffffffffffffffffffffffffffffffffffffffff1673ffffffffffffffffffffffffffffffffffffffff163373ffffffffffffffffffffffffffffffffffffffff16141561177c576040517f08c379a000000000000000000000000000000000000000000000000000000000815260040180806020018281038252601d8152602001807f4f776e65722063616e6e6f742072656e7420686973206f776e204e465400000081525060200191505060405180910390fd5b6000600960008473ffffffffffffffffffffffffffffffffffffffff1673ffffffffffffffffffffffffffffffffffffffff16815260200190815260200160002060008381526020019081526020016000206002015411611845576040517f08c379a00000000000000000000000000000000000000000000000000000000081526004018080602001828103825260158152602001807f636f756c64206e6f742066696e6420616e204e4654000000000000000000000081525060200191505060405180910390fd5b6000600960008473ffffffffffffffffffffffffffffffffffffffff1673ffffffffffffffffffffffffffffffffffffffff168152602001908152602001600020600083815260200190815260200160002060000160009054906101000a900473ffffffffffffffffffffffffffffffffffffffff16905060006118ca84848761083d565b90506118d682876132c4565b6119a0600f60009054906101000a900473ffffffffffffffffffffffffffffffffffffffff163383600760008773ffffffffffffffffffffffffffffffffffffffff1673ffffffffffffffffffffffffffffffffffffffff16815260200190815260200160002060008b73ffffffffffffffffffffffffffffffffffffffff1673ffffffffffffffffffffffffffffffffffffffff16815260200190815260200160002060009054906101000a900473ffffffffffffffffffffffffffffffffffffffff1661345d565b600760008373ffffffffffffffffffffffffffffffffffffffff1673ffffffffffffffffffffffffffffffffffffffff16815260200190815260200160002060008773ffffffffffffffffffffffffffffffffffffffff1673ffffffffffffffffffffffffffffffffffffffff16815260200190815260200160002060009054906101000a900473ffffffffffffffffffffffffffffffffffffffff1673ffffffffffffffffffffffffffffffffffffffff1663d1eb96e2600f60009054906101000a900473ffffffffffffffffffffffffffffffffffffffff16601260009054906101000a900473ffffffffffffffffffffffffffffffffffffffff16601360009054906101000a900473ffffffffffffffffffffffffffffffffffffffff16306040518563ffffffff1660e01b8152600401808573ffffffffffffffffffffffffffffffffffffffff1681526020018473ffffffffffffffffffffffffffffffffffffffff1681526020018373ffffffffffffffffffffffffffffffffffffffff1681526020018273ffffffffffffffffffffffffffffffffffffffff168152602001945050505050600060405180830381600087803b158015611b6557600080fd5b505af1158015611b79573d6000803e3d6000fd5b5050505085600960008673ffffffffffffffffffffffffffffffffffffffff1673ffffffffffffffffffffffffffffffffffffffff168152602001908152602001600020600085815260200190815260200160002060010160006101000a81548173ffffffffffffffffffffffffffffffffffffffff021916908373ffffffffffffffffffffffffffffffffffffffff16021790555042600960008673ffffffffffffffffffffffffffffffffffffffff1673ffffffffffffffffffffffffffffffffffffffff16815260200190815260200160002060008581526020019081526020016000206003018190555080600960008673ffffffffffffffffffffffffffffffffffffffff1673ffffffffffffffffffffffffffffffffffffffff1681526020019081526020016000206000858152602001908152602001600020600501819055508373ffffffffffffffffffffffffffffffffffffffff166323b872dd3088866040518463ffffffff1660e01b8152600401808473ffffffffffffffffffffffffffffffffffffffff1681526020018373ffffffffffffffffffffffffffffffffffffffff1681526020018281526020019350505050600060405180830381600087803b158015611d4e57600080fd5b505af1158015611d62573d6000803e3d6000fd5b505050503373ffffffffffffffffffffffffffffffffffffffff16838573ffffffffffffffffffffffffffffffffffffffff167fd0d645350ad097df9788d3aaf3d04fff1a87d9f888c1b744b6db739a9e90a6f0600960008973ffffffffffffffffffffffffffffffffffffffff1673ffffffffffffffffffffffffffffffffffffffff168152602001908152602001600020600088815260200190815260200160002060000160009054906101000a900473ffffffffffffffffffffffffffffffffffffffff16600960008a73ffffffffffffffffffffffffffffffffffffffff1673ffffffffffffffffffffffffffffffffffffffff168152602001908152602001600020600089815260200190815260200160002060030154600960008b73ffffffffffffffffffffffffffffffffffffffff1673ffffffffffffffffffffffffffffffffffffffff16815260200190815260200160002060008a81526020019081526020016000206004015487604051808573ffffffffffffffffffffffffffffffffffffffff16815260200184815260200183815260200182815260200194505050505060405180910390a45050600160068190555050505050565b600860009054906101000a900473ffffffffffffffffffffffffffffffffffffffff1681565b6000600960008473ffffffffffffffffffffffffffffffffffffffff1673ffffffffffffffffffffffffffffffffffffffff16815260200190815260200160002060008381526020019081526020016000206002015411612012576040517f08c379a00000000000000000000000000000000000000000000000000000000081526004018080602001828103825260158152602001807f636f756c64206e6f742066696e6420616e204e4654000000000000000000000081525060200191505060405180910390fd5b3373ffffffffffffffffffffffffffffffffffffffff16600960008473ffffffffffffffffffffffffffffffffffffffff1673ffffffffffffffffffffffffffffffffffffffff168152602001908152602001600020600083815260200190815260200160002060010160009054906101000a900473ffffffffffffffffffffffffffffffffffffffff1673ffffffffffffffffffffffffffffffffffffffff1614612126576040517f08c379a000000000000000000000000000000000000000000000000000000000815260040180806020018281038252600c8152602001807f4e6f7420426f72726f776572000000000000000000000000000000000000000081525060200191505060405180910390fd5b60006121a362015180612195600960008773ffffffffffffffffffffffffffffffffffffffff1673ffffffffffffffffffffffffffffffffffffffff1681526020019081526020016000206000868152602001908152602001600020600301544261319990919063ffffffff16565b612d6290919063ffffffff16565b9050600960008473ffffffffffffffffffffffffffffffffffffffff1673ffffffffffffffffffffffffffffffffffffffff16815260200190815260200160002060008381526020019081526020016000206002015481111561226e576040517f08c379a00000000000000000000000000000000000000000000000000000000081526004018080602001828103825260118152602001807f4475726174696f6e20657863656564656400000000000000000000000000000081525060200191505060405180910390fd5b6000600960008573ffffffffffffffffffffffffffffffffffffffff1673ffffffffffffffffffffffffffffffffffffffff168152602001908152602001600020600084815260200190815260200160002060000160009054906101000a900473ffffffffffffffffffffffffffffffffffffffff1690506000600960008673ffffffffffffffffffffffffffffffffffffffff1673ffffffffffffffffffffffffffffffffffffffff16815260200190815260200160002060008581526020019081526020016000206005015490506000600760008473ffffffffffffffffffffffffffffffffffffffff1673ffffffffffffffffffffffffffffffffffffffff16815260200190815260200160002060003373ffffffffffffffffffffffffffffffffffffffff1673ffffffffffffffffffffffffffffffffffffffff16815260200190815260200160002060009054906101000a900473ffffffffffffffffffffffffffffffffffffffff1673ffffffffffffffffffffffffffffffffffffffff1663f940e385601060009054906101000a900473ffffffffffffffffffffffffffffffffffffffff16600f60009054906101000a900473ffffffffffffffffffffffffffffffffffffffff166040518363ffffffff1660e01b8152600401808373ffffffffffffffffffffffffffffffffffffffff1681526020018273ffffffffffffffffffffffffffffffffffffffff16815260200192505050602060405180830381600087803b1580156124a757600080fd5b505af11580156124bb573d6000803e3d6000fd5b505050506040513d60208110156124d157600080fd5b8101908080519060200190929190505050905060006124f9838361319990919063ffffffff16565b90506000612511600283612d6290919063ffffffff16565b90506000612529600284612d6290919063ffffffff16565b90506000600a5414156125a4576040517f08c379a00000000000000000000000000000000000000000000000000000000081526004018080602001828103825260118152602001807f4e4654205072696365206e6f742073657400000000000000000000000000000081525060200191505060405180910390fd5b600a54600960008b73ffffffffffffffffffffffffffffffffffffffff1673ffffffffffffffffffffffffffffffffffffffff16815260200190815260200160002060008a815260200190815260200160002060040181905550600061263d61271061262f8a612621600e54600a54612cdc90919063ffffffff16565b612cdc90919063ffffffff16565b612d6290919063ffffffff16565b9050858111156126b457600061265c878361319990919063ffffffff16565b905080831061269457612678818461319990919063ffffffff16565b925061268d8185612df190919063ffffffff16565b93506126ae565b600092506126ab8785612df190919063ffffffff16565b93505b506126f1565b6126c78184612df190919063ffffffff16565b92506126ee6126df828861319990919063ffffffff16565b83612df190919063ffffffff16565b91505b8973ffffffffffffffffffffffffffffffffffffffff166323b872dd33898c6040518463ffffffff1660e01b8152600401808473ffffffffffffffffffffffffffffffffffffffff1681526020018373ffffffffffffffffffffffffffffffffffffffff1681526020018281526020019350505050600060405180830381600087803b15801561278057600080fd5b505af1158015612794573d6000803e3d6000fd5b505050506127e58784600f60009054906101000a900473ffffffffffffffffffffffffffffffffffffffff1673ffffffffffffffffffffffffffffffffffffffff166132229092919063ffffffff16565b6128323383600f60009054906101000a900473ffffffffffffffffffffffffffffffffffffffff1673ffffffffffffffffffffffffffffffffffffffff166132229092919063ffffffff16565b6000600960008c73ffffffffffffffffffffffffffffffffffffffff1673ffffffffffffffffffffffffffffffffffffffff16815260200190815260200160002060008b815260200190815260200160002060020181905550888a73ffffffffffffffffffffffffffffffffffffffff167f594f0d676696ec7a41065f43e8c5598e1e37d82e45657fa9db4285b72368aef7338a604051808373ffffffffffffffffffffffffffffffffffffffff1681526020018273ffffffffffffffffffffffffffffffffffffffff1681526020019250505060405180910390a350505050505050505050565b600e5481565b600073ffffffffffffffffffffffffffffffffffffffff168573ffffffffffffffffffffffffffffffffffffffff1614156129c3576040517f08c379a00000000000000000000000000000000000000000000000000000000081526004018080602001828103825260138152602001807f496e76616c6964204e465420416464726573730000000000000000000000000081525060200191505060405180910390fd5b84601460006101000a81548173ffffffffffffffffffffffffffffffffffffffff021916908373ffffffffffffffffffffffffffffffffffffffff16021790555083601581905550612a5882828080601f016020809104026020016040519081016040528093929190818152602001838380828437600081840152601f19601f820116905080830192505050505050506134e9565b6040518060c001604052803373ffffffffffffffffffffffffffffffffffffffff168152602001600073ffffffffffffffffffffffffffffffffffffffff16815260200184815260200160008152602001600081526020016000815250600960008773ffffffffffffffffffffffffffffffffffffffff1673ffffffffffffffffffffffffffffffffffffffff168152602001908152602001600020600086815260200190815260200160002060008201518160000160006101000a81548173ffffffffffffffffffffffffffffffffffffffff021916908373ffffffffffffffffffffffffffffffffffffffff16021790555060208201518160010160006101000a81548173ffffffffffffffffffffffffffffffffffffffff021916908373ffffffffffffffffffffffffffffffffffffffff16021790555060408201518160020155606082015181600301556080820151816004015560a082015181600501559050508473ffffffffffffffffffffffffffffffffffffffff166323b872dd3330876040518463ffffffff1660e01b8152600401808473ffffffffffffffffffffffffffffffffffffffff1681526020018373ffffffffffffffffffffffffffffffffffffffff1681526020018281526020019350505050600060405180830381600087803b158015612c4d57600080fd5b505af1158015612c61573d6000803e3d6000fd5b505050503373ffffffffffffffffffffffffffffffffffffffff16848673ffffffffffffffffffffffffffffffffffffffff167f4959881d9eb4b5faf87818fb49bfc8153e4daa882e53ad3230a548ba5356bff186600a54604051808381526020018281526020019250505060405180910390a45050505050565b600080831415612cef5760009050612d5c565b6000828402905082848281612d0057fe5b0414612d57576040517f08c379a000000000000000000000000000000000000000000000000000000000815260040180806020018281038252602181526020018061413e6021913960400191505060405180910390fd5b809150505b92915050565b6000808211612dd9576040517f08c379a000000000000000000000000000000000000000000000000000000000815260040180806020018281038252601a8152602001807f536166654d6174683a206469766973696f6e206279207a65726f00000000000081525060200191505060405180910390fd5b6000828481612de457fe5b0490508091505092915050565b600080828401905083811015612e6f576040517f08c379a000000000000000000000000000000000000000000000000000000000815260040180806020018281038252601b8152602001807f536166654d6174683a206164646974696f6e206f766572666c6f77000000000081525060200191505060405180910390fd5b8091505092915050565b612e81614061565b612e89614061565b612ea085858584613639909392919063ffffffff16565b9150509392505050565b612ec18284608001516136e990919063ffffffff16565b612ed88184608001516136e990919063ffffffff16565b505050565b612ef48284608001516136e990919063ffffffff16565b612f0b81846080015161370e90919063ffffffff16565b505050565b600030600454604051602001808373ffffffffffffffffffffffffffffffffffffffff1660601b815260140182815260200192505050604051602081830303815290604052805190602001209050600454836060018181525050836005600083815260200190815260200160002060006101000a81548173ffffffffffffffffffffffffffffffffffffffff021916908373ffffffffffffffffffffffffffffffffffffffff160217905550807fb5e6e01e79f91267dc17b4e6314d5d4d03593d2ceee0fbb452b750bd70ea5af960405160405180910390a2600260009054906101000a900473ffffffffffffffffffffffffffffffffffffffff1673ffffffffffffffffffffffffffffffffffffffff16634000aea085846130328761375a565b6040518463ffffffff1660e01b8152600401808473ffffffffffffffffffffffffffffffffffffffff16815260200183815260200180602001828103825283818151815260200191508051906020019080838360005b838110156130a3578082015181840152602081019050613088565b50505050905090810190601f1680156130d05780820380516001836020036101000a031916815260200191505b50945050505050602060405180830381600087803b1580156130f157600080fd5b505af1158015613105573d6000803e3d6000fd5b505050506040513d602081101561311b57600080fd5b8101908080519060200190929190505050613181576040517f08c379a00000000000000000000000000000000000000000000000000000000081526004018080602001828103825260238152602001806140e96023913960400191505060405180910390fd5b60016004600082825401925050819055509392505050565b600082821115613211576040517f08c379a000000000000000000000000000000000000000000000000000000000815260040180806020018281038252601e8152602001807f536166654d6174683a207375627472616374696f6e206f766572666c6f77000081525060200191505060405180910390fd5b600082840390508091505092915050565b6132bf8363a9059cbb60e01b8484604051602401808373ffffffffffffffffffffffffffffffffffffffff16815260200182815260200192505050604051602081830303815290604052907bffffffffffffffffffffffffffffffffffffffffffffffffffffffff19166020820180517bffffffffffffffffffffffffffffffffffffffffffffffffffffffff83818316178352505050506138db565b505050565b606082604051602401808273ffffffffffffffffffffffffffffffffffffffff1681526020019150506040516020818303038152906040527fc4d66de8000000000000000000000000000000000000000000000000000000007bffffffffffffffffffffffffffffffffffffffffffffffffffffffff19166020820180517bffffffffffffffffffffffffffffffffffffffffffffffffffffffff83818316178352505050509050600061339a600860009054906101000a900473ffffffffffffffffffffffffffffffffffffffff16836113f8565b905080600760008673ffffffffffffffffffffffffffffffffffffffff1673ffffffffffffffffffffffffffffffffffffffff16815260200190815260200160002060008573ffffffffffffffffffffffffffffffffffffffff1673ffffffffffffffffffffffffffffffffffffffff16815260200190815260200160002060006101000a81548173ffffffffffffffffffffffffffffffffffffffff021916908373ffffffffffffffffffffffffffffffffffffffff16021790555050505050565b600034146134b6576040517f08c379a000000000000000000000000000000000000000000000000000000000815260040180806020018281038252603281526020018061410c6032913960400191505060405180910390fd5b6134e38382848773ffffffffffffffffffffffffffffffffffffffff166139ca909392919063ffffffff16565b50505050565b6134f1614061565b613505600c5430634357855e60e01b612e79565b90506135516040518060400160405280600381526020017f67657400000000000000000000000000000000000000000000000000000000008152508383612eaa9092919063ffffffff16565b6135b36040518060400160405280600481526020017f706174680000000000000000000000000000000000000000000000000000000081525060405180606001604052806021815260200161415f6021913983612eaa9092919063ffffffff16565b6136056040518060400160405280600581526020017f74696d6573000000000000000000000000000000000000000000000000000000815250670de0b6b3a764000083612edd9092919063ffffffff16565b613634600b60009054906101000a900473ffffffffffffffffffffffffffffffffffffffff1682600d54612f10565b505050565b613641614061565b6136518560800151610100613a8b565b508385600001818152505082856020019073ffffffffffffffffffffffffffffffffffffffff16908173ffffffffffffffffffffffffffffffffffffffff16815250508185604001907bffffffffffffffffffffffffffffffffffffffffffffffffffffffff191690817bffffffffffffffffffffffffffffffffffffffffffffffffffffffff191681525050849050949350505050565b6136f68260038351613adf565b6137098183613c2490919063ffffffff16565b505050565b600081126137275761372282600083613adf565b613756565b613755826001837fffffffffffffffffffffffffffffffffffffffffffffffffffffffffffffffff03613adf565b5b5050565b6060634042994660e01b60008084600001518560200151866040015187606001516001896080015160000151604051602401808973ffffffffffffffffffffffffffffffffffffffff1681526020018881526020018781526020018673ffffffffffffffffffffffffffffffffffffffff168152602001857bffffffffffffffffffffffffffffffffffffffffffffffffffffffff1916815260200184815260200183815260200180602001828103825283818151815260200191508051906020019080838360005b8381101561383e578082015181840152602081019050613823565b50505050905090810190601f16801561386b5780820380516001836020036101000a031916815260200191505b509950505050505050505050604051602081830303815290604052907bffffffffffffffffffffffffffffffffffffffffffffffffffffffff19166020820180517bffffffffffffffffffffffffffffffffffffffffffffffffffffffff83818316178352505050509050919050565b606061393d826040518060400160405280602081526020017f5361666545524332303a206c6f772d6c6576656c2063616c6c206661696c65648152508573ffffffffffffffffffffffffffffffffffffffff16613c469092919063ffffffff16565b90506000815111156139c55780806020019051602081101561395e57600080fd5b81019080805190602001909291905050506139c4576040517f08c379a000000000000000000000000000000000000000000000000000000000815260040180806020018281038252602a8152602001806141a8602a913960400191505060405180910390fd5b5b505050565b613a85846323b872dd60e01b858585604051602401808473ffffffffffffffffffffffffffffffffffffffff1681526020018373ffffffffffffffffffffffffffffffffffffffff1681526020018281526020019350505050604051602081830303815290604052907bffffffffffffffffffffffffffffffffffffffffffffffffffffffff19166020820180517bffffffffffffffffffffffffffffffffffffffffffffffffffffffff83818316178352505050506138db565b50505050565b613a936140ce565b600060208381613a9f57fe5b0614613ab85760208281613aaf57fe5b06602003820191505b81836020018181525050604051808452600081528281016020016040525082905092915050565b60178111613b0c57613b068160058460ff16901b60ff161784613c5e90919063ffffffff16565b50613c1f565b60ff8111613b4e57613b31601860058460ff16901b1784613c5e90919063ffffffff16565b50613b4881600185613c7e9092919063ffffffff16565b50613c1e565b61ffff8111613b9157613b74601960058460ff16901b1784613c5e90919063ffffffff16565b50613b8b81600285613c7e9092919063ffffffff16565b50613c1d565b63ffffffff8111613bd657613bb9601a60058460ff16901b1784613c5e90919063ffffffff16565b50613bd081600485613c7e9092919063ffffffff16565b50613c1c565b67ffffffffffffffff8111613c1b57613c02601b60058460ff16901b1784613c5e90919063ffffffff16565b50613c1981600885613c7e9092919063ffffffff16565b505b5b5b5b5b505050565b613c2c6140ce565b613c3e83846000015151848551613ca0565b905092915050565b6060613c558484600085613d59565b90509392505050565b613c666140ce565b613c768384600001515184613f5f565b905092915050565b613c866140ce565b613c97848560000151518585613fad565b90509392505050565b613ca86140ce565b8251821115613cb657600080fd5b84602001518285011115613ce157613ce0856002613cda886020015188870161400e565b0261402a565b5b600080865180518760208301019350808887011115613d005787860182525b60208701925050505b60208410613d2c5780518252602082019150602081019050602084039350613d09565b60006001856020036101000a03905080198251168184511681811785525050879350505050949350505050565b6060613d648561404e565b613dd6576040517f08c379a000000000000000000000000000000000000000000000000000000000815260040180806020018281038252601d8152602001807f416464726573733a2063616c6c20746f206e6f6e2d636f6e747261637400000081525060200191505060405180910390fd5b600060608673ffffffffffffffffffffffffffffffffffffffff1685876040518082805190602001908083835b60208310613e265780518252602082019150602081019050602083039250613e03565b6001836020036101000a03801982511681845116808217855250505050505090500191505060006040518083038185875af1925050503d8060008114613e88576040519150601f19603f3d011682016040523d82523d6000602084013e613e8d565b606091505b50915091508115613ea2578092505050613f57565b600081511115613eb55780518082602001fd5b836040517f08c379a00000000000000000000000000000000000000000000000000000000081526004018080602001828103825283818151815260200191508051906020019080838360005b83811015613f1c578082015181840152602081019050613f01565b50505050905090810190601f168015613f495780820380516001836020036101000a031916815260200191505b509250505060405180910390fd5b949350505050565b613f676140ce565b83602001518310613f8457613f8384600286602001510261402a565b5b8351805160208583010184815381861415613fa0576001820183525b5050508390509392505050565b613fb56140ce565b84602001518483011115613fd357613fd28560028685010261402a565b5b60006001836101000a03905085518386820101858319825116178152815185880111156140005784870182525b505085915050949350505050565b60008183111561402057829050614024565b8190505b92915050565b60608260000151905061403d8383613a8b565b506140488382613c24565b50505050565b600080823b905060008111915050919050565b6040518060a0016040528060008019168152602001600073ffffffffffffffffffffffffffffffffffffffff16815260200160007bffffffffffffffffffffffffffffffffffffffffffffffffffffffff19168152602001600081526020016140c86140ce565b81525090565b60405180604001604052806060815260200160008152509056fe756e61626c6520746f207472616e73666572416e6443616c6c20746f206f7261636c65557365722069732073656e64696e672045544820616c6f6e67207769746820746865204552433230207472616e736665722e536166654d6174683a206d756c7469706c69636174696f6e206f766572666c6f776c6173745f73616c652e7061796d656e745f746f6b656e2e7573645f7072696365536f75726365206d75737420626520746865206f7261636c65206f662074686520726571756573745361666545524332303a204552433230206f7065726174696f6e20646964206e6f742073756363656564a264697066735822122016baee3999700ea994c49834061e2841b5606b203a91a215f522a61e1032c5fb64736f6c634300060c0033",
  "immutableReferences": {},
  "source": "// SPDX-License-Identifier: MIT\npragma solidity ^0.6.0;\n\nimport \"../node_modules/@chainlink/contracts/src/v0.6/ChainlinkClient.sol\";\nimport \"../node_modules/@openzeppelin/contracts/utils/ReentrancyGuard.sol\";\nimport \"../node_modules/@openzeppelin/contracts/token/ERC20/SafeERC20.sol\";\nimport \"../node_modules/@openzeppelin/contracts/token/ERC20/ERC20.sol\";\nimport \"../node_modules/@openzeppelin/contracts/token/ERC721/ERC721.sol\";\nimport \"./utils/ProxyFactory.sol\";\nimport \"./utils/OwnableUpgradeSafe.sol\";\nimport \"./utils/ContextUpgradeSafe.sol\";\nimport \"./utils/Initializable.sol\";\nimport \"./interfaces/ILendingPoolAddressProvider.sol\";\nimport \"./interfaces/ILendingPoolCore.sol\";\nimport \"./interfaces/ILendingPool.sol\";\nimport \"./interfaces/AToken.sol\";\n\n\ncontract InterestCalculatorProxy is Initializable, OwnableUpgradeSafe {\n  using  SafeERC20 for ERC20;\n  event Initialized(address indexed thisAddress);\n  address rentft;\n\n  // proxy admin would be the owner to prevent in fraud cases where the borrower\n  // doesn't return the nft back\n  function initialize(address _owner) public initializer {\n    OwnableUpgradeSafe.__Ownable_init();\n    OwnableUpgradeSafe.transferOwnership(_owner);\n    emit Initialized(address(this));\n  }\n  \n  function deposit(address _reserve, address _lendingPool, address _lendingPoolCore, address _rentft) public {\n    rentft = _rentft;\n    uint reserveBalance = ERC20(_reserve).balanceOf(address(this));\n    ERC20(_reserve).approve(_lendingPoolCore, reserveBalance);\n    ILendingPool(_lendingPool).deposit(_reserve, reserveBalance, 0);\n  }\n  \n  // allow rentft to withdraw from aave\n  function withdraw(address aDaiAddress, address daiAddress) public returns(uint256) {\n      require(msg.sender == rentft, \"Not Rentft\");\n        \n      uint256 balance = IERC20(aDaiAddress).balanceOf(address(this));\n      \n      // withdraw dai from aDai\n      AToken(aDaiAddress).redeem(balance);\n      ERC20(daiAddress).safeTransfer(rentft, balance);\n      \n      return balance;\n  }\n}\n\ncontract Rentft is\n  ProxyFactory,\n  ChainlinkClient,\n  ReentrancyGuard\n{\n  // using SafeMath for uint256;\n  using SafeERC20 for ERC20;\n  \n  event ProductAdded(address indexed nftAddress, uint256 indexed nftId, address indexed owner, uint256 duration, uint256 price);\n  event Rent(address indexed nftAddress, uint256 indexed nftId, address indexed borrower, address owner, uint256 borrowedAt, uint256 price, uint256 collateral);\n  event Return(address indexed nftAddress, uint256 indexed nftId, address borrower, address owner);\n\n\n\n  struct Asset {\n    address owner;\n    address borrower;\n    uint256 duration;    // number of days\n    uint256 borrowedAt;  // borrowed time to be verifed by returning\n    uint256 nftPrice;\n    uint256 collateral;  // for security\n  }\n\n  // proxy details\n  // owner => borrower => proxy\n  mapping(address => mapping(address => address)) public proxyInfo;\n  address public proxyBaseAddress;\n\n  // nft address => token id => asset info struct\n  mapping(address => mapping(uint256 => Asset)) public assets;\n\n  uint256 private nftPrice;\n  address private oracle;\n  bytes32 private jobId;\n  uint256 private chainlinkFee;\n  // this fee is added on top of the collateral for each hold day of the NFT.\n  // This is used to cancel out any potential swings in the price of the NFT\n  // denoted in bps (basis points). 1% is 100 bps. 0.1% is 10 bps and\n  // equivalently 0.01% is 1 bps. The mechanism for computing the rent will\n  // change in the future, to be more efficient and meaningful\n  uint256 public collateralDailyFee = 100;\n  address public daiAddress = 0xFf795577d9AC8bD7D90Ee22b6C1703490b6512FD;\n  address public aDaiAddress = 0x58AD4cB396411B691A9AAb6F74545b2C5217FE6a;\n\n  ILendingPoolAddressesProvider public lendingPoolAddressProvider;\n  ILendingPool public lendingPool;\n  ILendingPoolCore public lendingPoolCore;\n  \n  address tempNftAddress;\n  uint256 tempNftId;\n\n  /**\n   * Network: Kovan\n   * Oracle: Chainlink - 0x2f90A6D021db21e1B2A077c5a37B3C7E75D15b7e\n   * Job ID: Chainlink - 29fa9aa13bf1468788b7cc4a500a45b8\n   * Link: 0xa36085F69e2889c224210F603D836748e7dC0088\n   * Fee: 0.1 LINK\n   */\n  // provide aave address provider for the network you are working on\n  // get all aave related addresses through addressesProvider state var\n  // get all aToken reserve addresses through the core state var\n  constructor(address _proxyBaseAddress) public {\n    setPublicChainlinkToken();\n    oracle = 0x2f90A6D021db21e1B2A077c5a37B3C7E75D15b7e;\n    jobId = \"29fa9aa13bf1468788b7cc4a500a45b8\";\n    chainlinkFee = 0.1 * 10**18; // 0.1 LINK\n    proxyBaseAddress = _proxyBaseAddress;\n    // do we need this at the moment  ?\n    lendingPoolAddressProvider =ILendingPoolAddressesProvider(0x506B0B2CF20FAA8f38a4E2B524EE43e1f4458Cc5);\n    lendingPool = ILendingPool(lendingPoolAddressProvider.getLendingPool());\n    lendingPoolCore = ILendingPoolCore(lendingPoolAddressProvider.getLendingPoolCore());\n  }\n\n  // function to list the nft on the platform\n  // url will be the api endpoint to fetch nft price\n  function addProduct(\n    address nftAddress,\n    uint256 nftId,\n    uint256 duration,\n    string calldata _url\n  ) external {\n    require(nftAddress != address(0), \"Invalid NFT Address\");\n    \n    tempNftAddress = nftAddress;\n    tempNftId = nftId;\n    fetchNFTPrice(_url);\n\n    // need to verify whether the nftPrice will have the latest value\n    assets[nftAddress][nftId] = Asset(\n      msg.sender,\n      address(0),\n      duration,\n      0,\n      0, // price not yet fetched\n      0\n    );\n    \n    // transfer nft to this contract\n    ERC721(nftAddress).transferFrom(msg.sender, address(this), nftId);\n    emit ProductAdded(nftAddress, nftId, msg.sender, duration, nftPrice);\n  }\n\n   /**\n   * @dev calculates the total collateral price of the NFT. Imagine virtual museums that rent out\n   * the NFTs of the artists for some time. Therefore, there is a potential for reputation\n   * here. If the borrower has consistently good renting track-record, they will get more\n   * favourable quotes\n   * @param _duration number of days that the user wishes to rent out the NFT for. 1 means 1 day\n   * @return the total collateral + fee the borrower has to put up\n   **/\n  function calculateCollateral(\n    address _nft,\n    uint256 _tokenId,\n    uint256 _duration\n  ) public view returns (uint256) {\n    // ! TODO: need to ensure that this nftPrice is relevant, and is not old\n    // can we invoke chainlink price update here before computing the rentPrice?\n    // collateral = _nft_price * ((collateralDailyFee) ** _duration)\n    // collateral (with our service fee) = rentPrice * ourFee\n    // ! this must always be populated, otherwise an error will be thrown\n    // * interest compounding\n    uint256 basePrice = assets[_nft][_tokenId].nftPrice;\n    uint256 collateral = ((basePrice).add(basePrice.mul(collateralDailyFee).div(10000))).mul(_duration);\n    // this though returns price in ETH\n    // we need an ability to convert it into whatever\n    return collateral;\n  }\n\n  // to rent the contract:\n  // 1. the borrower must have paid the indicated collateral\n  // validations:\n  // 1. the borrower can't be borrowing the borrowed nft\n  // (this check also ensures that the borrower is not the\n  // owner & that the borrower isn't borrowing what he already borrowed)\n  // fetch price needs to be called since chainlink price won't be updated async\n  function rent(\n    address _borrower,\n    uint256 _duration,\n    address _nft,\n    uint256 _tokenId) external nonReentrant {\n    require(msg.sender != assets[_nft][_tokenId].owner, \"Owner cannot rent his own NFT\");\n    require(assets[_nft][_tokenId].duration > 0, \"could not find an NFT\");\n    \n    address owner = assets[_nft][_tokenId].owner;\n\n    // ! we only need DAI here to begin with\n    // require(msg.value > 0, \"you need to pay the collateral\");\n    // !! need to fix this calculation as the nft price value is older one here\n    uint256 collateral = calculateCollateral(_nft, _tokenId, _duration);\n    \n    // create proxy\n    createProxy(owner, _borrower);\n    \n    // ! will fail if the msg.sender hasn't approved us as the spender of their ERC20 tokens\n    transferToProxy(\n      daiAddress,\n      msg.sender,\n      collateral,\n      proxyInfo[owner][_borrower]\n    );\n    // deposit to aave\n    InterestCalculatorProxy(proxyInfo[owner][_borrower]).deposit(daiAddress, address(lendingPool), address(lendingPoolCore), address(this));\n    \n    // set asset vars\n    assets[_nft][_tokenId].borrower = _borrower;\n    assets[_nft][_tokenId].borrowedAt = now;\n    assets[_nft][_tokenId].collateral = collateral;\n    \n    // transfer nft to borrower\n    ERC721(_nft).transferFrom(address(this), _borrower, _tokenId);\n    emit Rent(_nft, _tokenId, msg.sender, assets[_nft][_tokenId].owner, assets[_nft][_tokenId].borrowedAt, assets[_nft][_tokenId].nftPrice, collateral);\n    \n  }\n  \n  // called by borrower\n  // fetch price needs to be called since chainlink price won't be updated async\n  function returnNFT(\n    address _nft,\n    uint256 _tokenId\n  ) external {\n      require(assets[_nft][_tokenId].duration > 0, \"could not find an NFT\");\n      require(assets[_nft][_tokenId].borrower == msg.sender, \"Not Borrower\");\n      // check (now-borrowedAt) <= duration in secs\n      uint256 durationInDays = now.sub(assets[_nft][_tokenId].borrowedAt).div(86400);\n      require(durationInDays <= assets[_nft][_tokenId].duration, \"Duration exceeded\");\n      \n      address owner = assets[_nft][_tokenId].owner;\n      uint256 collateralAvailable = assets[_nft][_tokenId].collateral;\n      \n      // redeem aDai to Dai in Proxy\n      uint256 daiReceived = InterestCalculatorProxy(proxyInfo[owner][msg.sender]).withdraw(aDaiAddress, daiAddress);\n      // calculate aave interest\n      uint256 interest = daiReceived.sub(collateralAvailable);\n      // split interest to both users\n      uint256 ownerPayout = interest.div(2);\n      uint256 borrowerPayout = interest.div(2);\n      \n      // get current nft price\n      require(nftPrice != 0, \"NFT Price not set\");\n      assets[_nft][_tokenId].nftPrice = nftPrice;\n      \n      // PAYOUT CALCULATION\n      uint256 calculatedRent = nftPrice.mul(collateralDailyFee).mul(durationInDays).div(10000);\n      // current price greater than initial price\n        if(calculatedRent > collateralAvailable) {\n            uint256 extra = calculatedRent.sub(collateralAvailable);\n          \n          // can compensate from borrower's share of interest\n          if(borrowerPayout >= extra) {\n              borrowerPayout = borrowerPayout.sub(extra);\n              ownerPayout = ownerPayout.add(extra);\n          } else {\n              // assign borrower's entire interest to owner\n              borrowerPayout = 0;\n              ownerPayout = ownerPayout.add(collateralAvailable);\n          } \n        } else {\n          // pay rent to owner, send remaining to borrower\n          ownerPayout = ownerPayout.add(calculatedRent);\n          borrowerPayout = borrowerPayout.add(collateralAvailable.sub(calculatedRent));\n      }\n\n      // send nft to owner\n      ERC721(_nft).transferFrom(msg.sender, owner, _tokenId);\n      \n      //send payout amounts to both\n      ERC20(daiAddress).safeTransfer(owner, ownerPayout);\n      ERC20(daiAddress).safeTransfer(msg.sender, borrowerPayout);\n      \n\n      // set assets params to null\n      assets[_nft][_tokenId].duration = 0;\n      emit Return(_nft, _tokenId, msg.sender, owner);\n  }\n  \n  // Allow owner to withdraw collateral\n  // in case of Scam (borrower not returning NFT after set duration)\n  function redeemCollateral(\n    address _nft,\n    uint256 _tokenId\n  ) external {\n      require(assets[_nft][_tokenId].duration > 0, \"could not find an NFT\");\n      require(assets[_nft][_tokenId].owner == msg.sender, \"Not Owner\");\n      \n      uint256 durationInDays = now.sub(assets[_nft][_tokenId].borrowedAt).div(86400);\n      require(durationInDays > assets[_nft][_tokenId].duration, \"Duration not exceeded\");\n      \n      address borrower = assets[_nft][_tokenId].borrower;\n      \n      // redeem aDai to Dai in Proxy\n      uint256 daiReceived = InterestCalculatorProxy(proxyInfo[msg.sender][borrower]).withdraw(aDaiAddress, daiAddress);\n      \n      // send dai\n      ERC20(daiAddress).safeTransfer(msg.sender, daiReceived);\n  }\n  \n  /**\n   * @dev transfers an amount from a user to the destination proxy address where it\n   * subsequently gets deposited into Aave\n   * @param _reserve the address of the reserve where the amount is being transferred\n   * @param _user the address of the user from where the transfer is happening\n   * @param _amount the amount being transferred\n   **/\n  function transferToProxy(\n    address _reserve,\n    address payable _user,\n    uint256 _amount,\n    address _proxy\n  ) private {\n      require(\n        msg.value == 0,\n        \"User is sending ETH along with the ERC20 transfer.\"\n      );\n      // ! our contract should be approved to move his ERC20 funds\n      ERC20(_reserve).safeTransferFrom(_user, _proxy, _amount);\n  }\n\n  // create the proxy contract for managing interest when a borrower rents it out\n  function createProxy(address _owner, address _borrower) internal {\n    bytes memory _payload = abi.encodeWithSignature(\n      \"initialize(address)\",\n      _owner\n    );\n    // Deploy proxy\n    // for testing the address of the proxy contract which will\n    // be used to redirect interest will come here\n    address _intermediate = deployMinimal(proxyBaseAddress, _payload);\n    // user address is just recorded for tracking the proxy for the particular pair\n    // TODO: need to test this for same owner but different user\n    proxyInfo[_owner][_borrower] = _intermediate;\n  }\n\n  // check whether the proxy contract exists or not for a owner-borrower pair\n  function getProxy(address _owner, address _borrower)\n    internal\n    view\n    returns (address)\n  {\n    return proxyInfo[_owner][_borrower];\n  }\n  \n  function fetchNFTPrice(string memory _url) internal {\n      Chainlink.Request memory request = buildChainlinkRequest(\n      jobId,\n      address(this),\n      this.fulfill.selector\n    );\n\n    // Set the URL to perform the GET request on\n    request.add(\"get\", _url);\n\n    // Set the path to find the desired data in the API response, where the response format is:\n    request.add(\"path\", \"last_sale.payment_token.usd_price\");\n\n    // Multiply the result by 10^18 to remove decimals\n    request.addInt(\"times\", 1000000000000000000);\n\n    // Sends the request\n    sendChainlinkRequestTo(oracle, request, chainlinkFee);\n  }\n  // to be called before rent and return functions\n  function fetchNFTPriceBeforeReturn(string calldata _url) external {\n      Chainlink.Request memory request = buildChainlinkRequest(\n      jobId,\n      address(this),\n      this.fulfillExternal.selector\n    );\n\n    // Set the URL to perform the GET request on\n    request.add(\"get\", _url);\n\n    // Set the path to find the desired data in the API response, where the response format is:\n    request.add(\"path\", \"last_sale.payment_token.usd_price\");\n\n    // Multiply the result by 10^18 to remove decimals\n    request.addInt(\"times\", 1000000000000000000);\n\n    // Sends the request\n    sendChainlinkRequestTo(oracle, request, chainlinkFee);\n  }\n\n  /**\n   * Receive the price response in the form of uint256\n   */\n  function fulfill(bytes32 _requestId, uint256 _price)\n    public\n    recordChainlinkFulfillment(_requestId)\n  {\n    assets[tempNftAddress][tempNftId].nftPrice = _price;\n  }\n  \n  function fulfillExternal(bytes32 _requestId, uint256 _price)\n    public\n    recordChainlinkFulfillment(_requestId)\n  {\n    nftPrice = _price;\n  }\n}\n",
  "sourcePath": "/Users/shredder/git/renft-contracts/contracts/rentft.sol",
  "compiler": {
    "name": "solc",
    "version": "0.6.12+commit.27d51765.Emscripten.clang"
  },
  "schemaVersion": "3.2.5",
  "updatedAt": "2020-09-26T14:07:50.071Z",
  "devdoc": {
    "kind": "dev",
    "methods": {
      "calculateCollateral(address,uint256,uint256)": {
        "details": "calculates the total collateral price of the NFT. Imagine virtual museums that rent out the NFTs of the artists for some time. Therefore, there is a potential for reputation here. If the borrower has consistently good renting track-record, they will get more favourable quotes",
        "params": {
          "_duration": "number of days that the user wishes to rent out the NFT for. 1 means 1 day"
        },
        "returns": {
          "_0": "the total collateral + fee the borrower has to put up*"
        }
      }
    },
    "version": 1
  },
  "userdoc": {
    "kind": "user",
    "methods": {
      "constructor": "Network: Kovan Oracle: Chainlink - 0x2f90A6D021db21e1B2A077c5a37B3C7E75D15b7e Job ID: Chainlink - 29fa9aa13bf1468788b7cc4a500a45b8 Link: 0xa36085F69e2889c224210F603D836748e7dC0088 Fee: 0.1 LINK",
      "fulfill(bytes32,uint256)": {
        "notice": "Receive the price response in the form of uint256"
      }
    },
    "version": 1
  }
}